8=FIX.4.4|9=80|35=A|34=1|49=EXEC_SERVER|52=20260228-01:28:39.591|56=MINIFIX_CLIENT|98=0|108=30|10=151|8=FIX.4.4|9=166|35=8|34=2|49=EXEC_SERVER|52=20260228-01:29:02.206|56=MINIFIX_CLIENT|6=0|11=2067598425|14=0|17=EXEC_1772242142206|37=GEN_1772242142204|39=0|54=1|55=GOOG|150=0|151=100|10=235|8=FIX.4.4|9=80|35=A|34=3|49=EXEC_SERVER|52=20260228-01:32:08.446|56=MINIFIX_CLIENT|98=0|108=30|10=143|8=FIX.4.4|9=166|35=8|34=4|49=EXEC_SERVER|52=20260228-01:32:12.584|56=MINIFIX_CLIENT|6=0|11=2067598426|14=0|17=EXEC_1772242332582|37=GEN_1772242332580|39=0|54=1|55=GOOG|150=0|151=100|10=002|8=FIX.4.4|9=68|35=0|34=5|49=EXEC_SERVER|52=20260228-01:32:42.968|56=MINIFIX_CLIENT|10=116|8=FIX.4.4|9=68|35=0|34=6|49=EXEC_SERVER|52=20260228-01:33:12.967|56=MINIFIX_CLIENT|10=114|8=FIX.4.4|9=68|35=0|34=7|49=EXEC_SERVER|52=20260228-01:33:42.966|56=MINIFIX_CLIENT|10=117|8=FIX.4.4|9=68|35=0|34=8|49=EXEC_SERVER|52=20260228-01:34:12.969|56=MINIFIX_CLIENT|10=119|8=FIX.4.4|9=68|35=0|34=9|49=EXEC_SERVER|52=20260228-01:34:42.965|56=MINIFIX_CLIENT|10=119|8=FIX.4.4|9=69|35=0|34=10|49=EXEC_SERVER|52=20260228-01:35:12.962|56=MINIFIX_CLIENT|10=155|8=FIX.4.4|9=69|35=0|34=11|49=EXEC_SERVER|52=20260228-01:35:42.963|56=MINIFIX_CLIENT|10=160|8=FIX.4.4|9=81|35=A|34=12|49=EXEC_SERVER|52=20260228-01:36:22.352|56=MINIFIX_CLIENT|98=0|108=30|10=188|8=FIX.4.4|9=167|35=8|34=13|49=EXEC_SERVER|52=20260228-01:36:24.616|56=MINIFIX_CLIENT|6=0|11=2067598427|14=0|17=EXEC_1772242584615|37=GEN_1772242584613|39=0|54=1|55=GOOG|150=0|151=100|10=067|8=FIX.4.4|9=69|35=0|34=14|49=EXEC_SERVER|52=20260228-01:36:54.971|56=MINIFIX_CLIENT|10=166|8=FIX.4.4|9=69|35=0|34=15|49=EXEC_SERVER|52=20260228-01:37:24.971|56=MINIFIX_CLIENT|10=165|8=FIX.4.4|9=69|35=0|34=16|49=EXEC_SERVER|52=20260228-01:37:54.968|56=MINIFIX_CLIENT|10=175|8=FIX.4.4|9=81|35=A|34=17|49=EXEC_SERVER|52=20260228-01:38:39.509|56=MINIFIX_CLIENT|98=0|108=30|10=207|8=FIX.4.4|9=167|35=8|34=18|49=EXEC_SERVER|52=20260228-01:38:48.413|56=MINIFIX_CLIENT|6=0|11=2067598428|14=0|17=EXEC_1772242728411|37=GEN_1772242728409|39=0|54=1|55=GOOG|150=0|151=100|10=073|8=FIX.4.4|9=69|35=0|34=19|49=EXEC_SERVER|52=20260228-01:39:19.112|56=MINIFIX_CLIENT|10=162|8=FIX.4.4|9=69|35=0|34=20|49=EXEC_SERVER|52=20260228-01:39:49.111|56=MINIFIX_CLIENT|10=156|8=FIX.4.4|9=69|35=0|34=21|49=EXEC_SERVER|52=20260228-01:40:19.109|56=MINIFIX_CLIENT|10=153|8=FIX.4.4|9=69|35=0|34=22|49=EXEC_SERVER|52=20260228-01:40:49.107|56=MINIFIX_CLIENT|10=155|8=FIX.4.4|9=69|35=0|34=23|49=EXEC_SERVER|52=20260228-01:41:19.105|56=MINIFIX_CLIENT|10=152|8=FIX.4.4|9=69|35=0|34=24|49=EXEC_SERVER|52=20260228-01:41:49.104|56=MINIFIX_CLIENT|10=155|8=FIX.4.4|9=69|35=0|34=25|49=EXEC_SERVER|52=20260228-01:42:19.102|56=MINIFIX_CLIENT|10=152|8=FIX.4.4|9=69|35=0|34=26|49=EXEC_SERVER|52=20260228-01:42:49.103|56=MINIFIX_CLIENT|10=157|8=FIX.4.4|9=69|35=0|34=27|49=EXEC_SERVER|52=20260228-01:43:19.105|56=MINIFIX_CLIENT|10=158|8=FIX.4.4|9=69|35=0|34=28|49=EXEC_SERVER|52=20260228-01:43:49.104|56=MINIFIX_CLIENT|10=161|8=FIX.4.4|9=69|35=0|34=29|49=EXEC_SERVER|52=20260228-01:44:19.103|56=MINIFIX_CLIENT|10=159|8=FIX.4.4|9=167|35=8|34=30|49=EXEC_SERVER|52=20260228-01:44:26.781|56=MINIFIX_CLIENT|6=0|11=2067598430|14=0|17=EXEC_1772243066781|37=GEN_1772243066780|39=0|54=1|55=GOOG|150=0|151=100|10=065|8=FIX.4.4|9=69|35=0|34=31|49=EXEC_SERVER|52=20260228-01:44:57.102|56=MINIFIX_CLIENT|10=153|8=FIX.4.4|9=69|35=0|34=32|49=EXEC_SERVER|52=20260228-01:45:27.097|56=MINIFIX_CLIENT|10=165|8=FIX.4.4|9=69|35=0|34=33|49=EXEC_SERVER|52=20260228-01:45:57.097|56=MINIFIX_CLIENT|10=169|8=FIX.4.4|9=69|35=0|34=34|49=EXEC_SERVER|52=20260228-01:46:27.097|56=MINIFIX_CLIENT|10=168|8=FIX.4.4|9=167|35=8|34=35|49=EXEC_SERVER|52=20260228-01:46:40.815|56=MINIFIX_CLIENT|6=0|11=2067598432|14=0|17=EXEC_1772243200815|37=GEN_1772243200815|39=0|54=1|55=GOOG|150=0|151=100|10=045|8=FIX.4.4|9=69|35=0|34=36|49=EXEC_SERVER|52=20260228-01:47:11.096|56=MINIFIX_CLIENT|10=163|8=FIX.4.4|9=69|35=0|34=37|49=EXEC_SERVER|52=20260228-01:47:41.093|56=MINIFIX_CLIENT|10=164|8=FIX.4.4|9=69|35=0|34=38|49=EXEC_SERVER|52=20260228-01:48:11.092|56=MINIFIX_CLIENT|10=162|8=FIX.4.4|9=69|35=0|34=39|49=EXEC_SERVER|52=20260228-01:48:41.094|56=MINIFIX_CLIENT|10=168|8=FIX.4.4|9=69|35=0|34=40|49=EXEC_SERVER|52=20260228-01:49:11.089|56=MINIFIX_CLIENT|10=162|8=FIX.4.4|9=69|35=0|34=41|49=EXEC_SERVER|52=20260228-01:49:41.090|56=MINIFIX_CLIENT|10=158|8=FIX.4.4|9=69|35=0|34=42|49=EXEC_SERVER|52=20260228-01:50:11.091|56=MINIFIX_CLIENT|10=149|8=FIX.4.4|9=81|35=A|34=43|49=EXEC_SERVER|52=20260228-01:54:53.572|56=MINIFIX_CLIENT|98=0|108=30|10=200|8=FIX.4.4|9=167|35=8|34=44|49=EXEC_SERVER|52=20260228-01:54:58.201|56=MINIFIX_CLIENT|6=0|11=2067598433|14=0|17=EXEC_1772243698201|37=GEN_1772243698199|39=0|54=2|55=GOOG|150=0|151=100|10=080|8=FIX.4.4|9=69|35=0|34=45|49=EXEC_SERVER|52=20260228-01:55:28.334|56=MINIFIX_CLIENT|10=165|8=FIX.4.4|9=69|35=0|34=46|49=EXEC_SERVER|52=20260228-01:55:58.333|56=MINIFIX_CLIENT|10=168|8=FIX.4.4|9=69|35=0|34=47|49=EXEC_SERVER|52=20260228-01:56:28.326|56=MINIFIX_CLIENT|10=169|8=FIX.4.4|9=69|35=0|34=48|49=EXEC_SERVER|52=20260228-01:56:58.328|56=MINIFIX_CLIENT|10=175|8=FIX.4.4|9=69|35=0|34=49|49=EXEC_SERVER|52=20260228-01:57:28.329|56=MINIFIX_CLIENT|10=175|8=FIX.4.4|9=69|35=0|34=50|49=EXEC_SERVER|52=20260228-01:57:58.326|56=MINIFIX_CLIENT|10=167|8=FIX.4.4|9=69|35=0|34=51|49=EXEC_SERVER|52=20260228-01:58:28.319|56=MINIFIX_CLIENT|10=168|8=FIX.4.4|9=69|35=0|34=52|49=EXEC_SERVER|52=20260228-01:58:59.310|56=MINIFIX_CLIENT|10=164|8=FIX.4.4|9=69|35=0|34=53|49=EXEC_SERVER|52=20260228-01:59:29.307|56=MINIFIX_CLIENT|10=169|8=FIX.4.4|9=69|35=0|34=54|49=EXEC_SERVER|52=20260228-01:59:59.308|56=MINIFIX_CLIENT|10=174|8=FIX.4.4|9=69|35=0|34=55|49=EXEC_SERVER|52=20260228-02:00:29.305|56=MINIFIX_CLIENT|10=156|8=FIX.4.4|9=69|35=0|34=56|49=EXEC_SERVER|52=20260228-02:00:59.302|56=MINIFIX_CLIENT|10=157|8=FIX.4.4|9=69|35=0|34=57|49=EXEC_SERVER|52=20260228-02:01:29.301|56=MINIFIX_CLIENT|10=155|8=FIX.4.4|9=69|35=0|34=58|49=EXEC_SERVER|52=20260228-02:01:59.299|56=MINIFIX_CLIENT|10=175|8=FIX.4.4|9=69|35=0|34=59|49=EXEC_SERVER|52=20260228-02:02:29.303|56=MINIFIX_CLIENT|10=160|8=FIX.4.4|9=69|35=0|34=60|49=EXEC_SERVER|52=20260228-02:02:59.302|56=MINIFIX_CLIENT|10=154|8=FIX.4.4|9=69|35=0|34=61|49=EXEC_SERVER|52=20260228-02:03:29.296|56=MINIFIX_CLIENT|10=165|8=FIX.4.4|9=69|35=0|34=62|49=EXEC_SERVER|52=20260228-02:03:59.297|56=MINIFIX_CLIENT|10=170|8=FIX.4.4|9=69|35=0|34=63|49=EXEC_SERVER|52=20260228-02:04:29.291|56=MINIFIX_CLIENT|10=163|8=FIX.4.4|9=69|35=0|34=64|49=EXEC_SERVER|52=20260228-02:04:59.296|56=MINIFIX_CLIENT|10=172|8=FIX.4.4|9=69|35=0|34=65|49=EXEC_SERVER|52=20260228-02:05:29.291|56=MINIFIX_CLIENT|10=166|8=FIX.4.4|9=69|35=0|34=66|49=EXEC_SERVER|52=20260228-02:05:59.289|56=MINIFIX_CLIENT|10=177|8=FIX.4.4|9=69|35=0|34=67|49=EXEC_SERVER|52=20260228-02:06:29.288|56=MINIFIX_CLIENT|10=175|8=FIX.4.4|9=69|35=0|34=68|49=EXEC_SERVER|52=20260228-02:06:59.288|56=MINIFIX_CLIENT|10=179|8=FIX.4.4|9=69|35=0|34=69|49=EXEC_SERVER|52=20260228-02:07:29.287|56=MINIFIX_CLIENT|10=177|8=FIX.4.4|9=69|35=0|34=70|49=EXEC_SERVER|52=20260228-02:07:59.289|56=MINIFIX_CLIENT|10=174|8=FIX.4.4|9=69|35=0|34=71|49=EXEC_SERVER|52=20260228-02:08:29.285|56=MINIFIX_CLIENT|10=169|8=FIX.4.4|9=69|35=0|34=72|49=EXEC_SERVER|52=20260228-02:08:59.284|56=MINIFIX_CLIENT|10=172|8=FIX.4.4|9=69|35=0|34=73|49=EXEC_SERVER|52=20260228-02:09:29.279|56=MINIFIX_CLIENT|10=175|8=FIX.4.4|9=69|35=0|34=74|49=EXEC_SERVER|52=20260228-02:09:59.279|56=MINIFIX_CLIENT|10=179|8=FIX.4.4|9=69|35=0|34=75|49=EXEC_SERVER|52=20260228-02:10:29.280|56=MINIFIX_CLIENT|10=161|8=FIX.4.4|9=69|35=0|34=76|49=EXEC_SERVER|52=20260228-02:10:59.279|56=MINIFIX_CLIENT|10=173|8=FIX.4.4|9=69|35=0|34=77|49=EXEC_SERVER|52=20260228-02:11:29.278|56=MINIFIX_CLIENT|10=171|8=FIX.4.4|9=69|35=0|34=78|49=EXEC_SERVER|52=20260228-02:11:59.276|56=MINIFIX_CLIENT|10=173|8=FIX.4.4|9=69|35=0|34=79|49=EXEC_SERVER|52=20260228-02:12:29.276|56=MINIFIX_CLIENT|10=172|8=FIX.4.4|9=69|35=0|34=80|49=EXEC_SERVER|52=20260228-02:12:59.275|56=MINIFIX_CLIENT|10=166|8=FIX.4.4|9=69|35=0|34=81|49=EXEC_SERVER|52=20260228-02:13:29.282|56=MINIFIX_CLIENT|10=163|8=FIX.4.4|9=69|35=0|34=82|49=EXEC_SERVER|52=20260228-02:13:59.299|56=MINIFIX_CLIENT|10=175|8=FIX.4.4|9=69|35=0|34=83|49=EXEC_SERVER|52=20260228-02:14:29.302|56=MINIFIX_CLIENT|10=159|8=FIX.4.4|9=167|35=8|34=84|49=EXEC_SERVER|52=20260228-02:14:34.563|56=MINIFIX_CLIENT|6=0|11=ORD_B1_001|14=0|17=EXEC_1772244874562|37=GEN_1772244874562|39=0|54=1|55=GOOG|150=0|151=100|10=235|8=FIX.4.4|9=69|35=0|34=85|49=EXEC_SERVER|52=20260228-02:15:05.301|56=MINIFIX_CLIENT|10=155|8=FIX.4.4|9=167|35=8|34=86|49=EXEC_SERVER|52=20260228-02:15:09.177|56=MINIFIX_CLIENT|6=0|11=ORD_B1_001|14=0|17=EXEC_1772244909177|37=GEN_1772244909177|39=0|54=1|55=GOOG|150=0|151=100|10=243|8=FIX.4.4|9=69|35=0|34=87|49=EXEC_SERVER|52=20260228-02:15:39.300|56=MINIFIX_CLIENT|10=163|8=FIX.4.4|9=69|35=0|34=88|49=EXEC_SERVER|52=20260228-02:16:09.302|56=MINIFIX_CLIENT|10=164|8=FIX.4.4|9=69|35=0|34=89|49=EXEC_SERVER|52=20260228-02:16:39.296|56=MINIFIX_CLIENT|10=180|8=FIX.4.4|9=69|35=0|34=90|49=EXEC_SERVER|52=20260228-02:17:09.296|56=MINIFIX_CLIENT|10=170|8=FIX.4.4|9=69|35=0|34=91|49=EXEC_SERVER|52=20260228-02:17:39.295|56=MINIFIX_CLIENT|10=173|8=FIX.4.4|9=69|35=0|34=92|49=EXEC_SERVER|52=20260228-02:18:09.295|56=MINIFIX_CLIENT|10=172|8=FIX.4.4|9=69|35=0|34=93|49=EXEC_SERVER|52=20260228-02:18:39.292|56=MINIFIX_CLIENT|10=173|8=FIX.4.4|9=167|35=8|34=94|49=EXEC_SERVER|52=20260228-02:18:58.501|56=MINIFIX_CLIENT|6=0|11=ORD_B1_001|14=0|17=EXEC_1772245138501|37=GEN_1772245138500|39=0|54=1|55=GOOG|150=0|151=100|10=211|8=FIX.4.4|9=69|35=0|34=95|49=EXEC_SERVER|52=20260228-02:19:29.294|56=MINIFIX_CLIENT|10=177|8=FIX.4.4|9=69|35=0|34=96|49=EXEC_SERVER|52=20260228-02:19:59.289|56=MINIFIX_CLIENT|10=185|8=FIX.4.4|9=69|35=0|34=97|49=EXEC_SERVER|52=20260228-02:20:29.291|56=MINIFIX_CLIENT|10=168|8=FIX.4.4|9=69|35=0|34=98|49=EXEC_SERVER|52=20260228-02:20:59.293|56=MINIFIX_CLIENT|10=174|8=FIX.4.4|9=69|35=0|34=99|49=EXEC_SERVER|52=20260228-02:21:29.293|56=MINIFIX_CLIENT|10=173|8=FIX.4.4|9=70|35=0|34=100|49=EXEC_SERVER|52=20260228-02:21:59.291|56=MINIFIX_CLIENT|10=197|8=FIX.4.4|9=168|35=8|34=101|49=EXEC_SERVER|52=20260228-02:22:09.642|56=MINIFIX_CLIENT|6=0|11=ORD_B1_001|14=0|17=EXEC_1772245329642|37=GEN_1772245329642|39=0|54=1|55=GOOG|150=0|151=100|10=007|8=FIX.4.4|9=70|35=0|34=102|49=EXEC_SERVER|52=20260228-02:22:40.287|56=MINIFIX_CLIENT|10=195|8=FIX.4.4|9=70|35=0|34=103|49=EXEC_SERVER|52=20260228-02:23:10.295|56=MINIFIX_CLIENT|10=193|8=FIX.4.4|9=70|35=0|34=104|49=EXEC_SERVER|52=20260228-02:23:41.282|56=MINIFIX_CLIENT|10=194|8=FIX.4.4|9=70|35=0|34=105|49=EXEC_SERVER|52=20260228-02:24:11.282|56=MINIFIX_CLIENT|10=193|8=FIX.4.4|9=70|35=0|34=106|49=EXEC_SERVER|52=20260228-02:24:41.282|56=MINIFIX_CLIENT|10=197|8=FIX.4.4|9=70|35=0|34=107|49=EXEC_SERVER|52=20260228-02:25:11.279|56=MINIFIX_CLIENT|10=202|8=FIX.4.4|9=70|35=0|34=108|49=EXEC_SERVER|52=20260228-02:25:41.281|56=MINIFIX_CLIENT|10=199|8=FIX.4.4|9=70|35=0|34=109|49=EXEC_SERVER|52=20260228-02:26:11.283|56=MINIFIX_CLIENT|10=200|8=FIX.4.4|9=70|35=0|34=110|49=EXEC_SERVER|52=20260228-02:26:41.276|56=MINIFIX_CLIENT|10=197|8=FIX.4.4|9=70|35=0|34=111|49=EXEC_SERVER|52=20260228-02:27:11.279|56=MINIFIX_CLIENT|10=199|8=FIX.4.4|9=70|35=0|34=112|49=EXEC_SERVER|52=20260228-02:27:41.274|56=MINIFIX_CLIENT|10=198|8=FIX.4.4|9=168|35=8|34=113|49=EXEC_SERVER|52=20260228-02:28:10.062|56=MINIFIX_CLIENT|6=0|11=ORD_B1_001|14=0|17=EXEC_1772245690062|37=GEN_1772245690062|39=0|54=1|55=GOOG|150=0|151=100|10=254|8=FIX.4.4|9=70|35=0|34=114|49=EXEC_SERVER|52=20260228-02:28:40.271|56=MINIFIX_CLIENT|10=197|8=FIX.4.4|9=168|35=8|34=115|49=EXEC_SERVER|52=20260228-02:29:06.697|56=MINIFIX_CLIENT|6=0|11=ORD_B1_001|14=0|17=EXEC_1772245746696|37=GEN_1772245746696|39=0|54=1|55=GOOG|150=0|151=100|10=050|8=FIX.4.4|9=70|35=0|34=116|49=EXEC_SERVER|52=20260228-02:29:37.263|56=MINIFIX_CLIENT|10=207|8=FIX.4.4|9=168|35=8|34=117|49=EXEC_SERVER|52=20260228-02:29:42.203|56=MINIFIX_CLIENT|6=0|11=ORD_B1_001|14=0|17=EXEC_1772245782203|37=GEN_1772245782203|39=0|54=1|55=GOOG|150=0|151=100|10=003|8=FIX.4.4|9=70|35=0|34=118|49=EXEC_SERVER|52=20260228-02:30:12.265|56=MINIFIX_CLIENT|10=196|8=FIX.4.4|9=70|35=0|34=119|49=EXEC_SERVER|52=20260228-02:30:42.265|56=MINIFIX_CLIENT|10=200|8=FIX.4.4|9=70|35=0|34=120|49=EXEC_SERVER|52=20260228-02:31:12.261|56=MINIFIX_CLIENT|10=186|8=FIX.4.4|9=70|35=0|34=121|49=EXEC_SERVER|52=20260228-02:31:42.262|56=MINIFIX_CLIENT|10=191|8=FIX.4.4|9=70|35=0|34=122|49=EXEC_SERVER|52=20260228-02:32:12.262|56=MINIFIX_CLIENT|10=190|8=FIX.4.4|9=70|35=0|34=123|49=EXEC_SERVER|52=20260228-02:32:42.262|56=MINIFIX_CLIENT|10=194|8=FIX.4.4|9=70|35=0|34=124|49=EXEC_SERVER|52=20260228-02:33:12.256|56=MINIFIX_CLIENT|10=196|8=FIX.4.4|9=70|35=0|34=125|49=EXEC_SERVER|52=20260228-02:33:42.257|56=MINIFIX_CLIENT|10=201|8=FIX.4.4|9=70|35=0|34=126|49=EXEC_SERVER|52=20260228-02:34:12.257|56=MINIFIX_CLIENT|10=200|8=FIX.4.4|9=70|35=0|34=127|49=EXEC_SERVER|52=20260228-02:34:42.256|56=MINIFIX_CLIENT|10=203|8=FIX.4.4|9=70|35=0|34=128|49=EXEC_SERVER|52=20260228-02:35:12.262|56=MINIFIX_CLIENT|10=199|8=FIX.4.4|9=70|35=0|34=129|49=EXEC_SERVER|52=20260228-02:35:43.251|56=MINIFIX_CLIENT|10=202|8=FIX.4.4|9=70|35=0|34=130|49=EXEC_SERVER|52=20260228-02:36:13.251|56=MINIFIX_CLIENT|10=192|8=FIX.4.4|9=70|35=0|34=131|49=EXEC_SERVER|52=20260228-02:36:43.252|56=MINIFIX_CLIENT|10=197|8=FIX.4.4|9=70|35=0|34=132|49=EXEC_SERVER|52=20260228-02:37:13.255|56=MINIFIX_CLIENT|10=199|8=FIX.4.4|9=70|35=0|34=133|49=EXEC_SERVER|52=20260228-02:37:43.249|56=MINIFIX_CLIENT|10=206|8=FIX.4.4|9=70|35=0|34=134|49=EXEC_SERVER|52=20260228-02:38:13.246|56=MINIFIX_CLIENT|10=202|8=FIX.4.4|9=70|35=0|34=135|49=EXEC_SERVER|52=20260228-02:38:43.253|56=MINIFIX_CLIENT|10=204|8=FIX.4.4|9=70|35=0|34=136|49=EXEC_SERVER|52=20260228-02:39:13.246|56=MINIFIX_CLIENT|10=205|8=FIX.4.4|9=70|35=0|34=137|49=EXEC_SERVER|52=20260228-02:39:43.249|56=MINIFIX_CLIENT|10=212|8=FIX.4.4|9=70|35=0|34=138|49=EXEC_SERVER|52=20260228-02:40:13.250|56=MINIFIX_CLIENT|10=194|8=FIX.4.4|9=70|35=0|34=139|49=EXEC_SERVER|52=20260228-02:40:44.240|56=MINIFIX_CLIENT|10=198|8=FIX.4.4|9=70|35=0|34=140|49=EXEC_SERVER|52=20260228-02:41:14.238|56=MINIFIX_CLIENT|10=195|8=FIX.4.4|9=70|35=0|34=141|49=EXEC_SERVER|52=20260228-02:41:44.247|56=MINIFIX_CLIENT|10=199|8=FIX.4.4|9=70|35=0|34=142|49=EXEC_SERVER|52=20260228-02:42:14.239|56=MINIFIX_CLIENT|10=199|8=FIX.4.4|9=70|35=0|34=143|49=EXEC_SERVER|52=20260228-02:42:44.241|56=MINIFIX_CLIENT|10=196|8=FIX.4.4|9=70|35=0|34=144|49=EXEC_SERVER|52=20260228-02:43:14.240|56=MINIFIX_CLIENT|10=194|8=FIX.4.4|9=70|35=0|34=145|49=EXEC_SERVER|52=20260228-02:43:44.240|56=MINIFIX_CLIENT|10=198|8=FIX.4.4|9=70|35=0|34=146|49=EXEC_SERVER|52=20260228-02:44:14.233|56=MINIFIX_CLIENT|10=199|8=FIX.4.4|9=70|35=0|34=147|49=EXEC_SERVER|52=20260228-02:44:44.231|56=MINIFIX_CLIENT|10=201|8=FIX.4.4|9=70|35=0|34=148|49=EXEC_SERVER|52=20260228-02:45:14.229|56=MINIFIX_CLIENT|10=207|8=FIX.4.4|9=70|35=0|34=149|49=EXEC_SERVER|52=20260228-02:45:44.226|56=MINIFIX_CLIENT|10=208|8=FIX.4.4|9=70|35=0|34=150|49=EXEC_SERVER|52=20260228-02:46:14.229|56=MINIFIX_CLIENT|10=201|8=FIX.4.4|9=70|35=0|34=151|49=EXEC_SERVER|52=20260228-02:46:44.226|56=MINIFIX_CLIENT|10=202|8=FIX.4.4|9=168|35=8|34=152|49=EXEC_SERVER|52=20260228-02:46:56.510|56=MINIFIX_CLIENT|6=0|11=ORD_B1_001|14=0|17=EXEC_1772246816509|37=GEN_1772246816509|39=0|54=1|55=GOOG|150=0|151=100|10=023|8=FIX.4.4|9=167|35=8|34=153|49=EXEC_SERVER|52=20260228-02:46:56.512|56=MINIFIX_CLIENT|6=0|11=ORD_B1_002|14=0|17=EXEC_1772246816512|37=GEN_1772246816512|39=0|54=1|55=AAPL|150=0|151=50|10=212|8=FIX.4.4|9=70|35=0|34=154|49=EXEC_SERVER|52=20260228-02:47:27.227|56=MINIFIX_CLIENT|10=208|8=FIX.4.4|9=70|35=0|34=155|49=EXEC_SERVER|52=20260228-02:47:57.223|56=MINIFIX_CLIENT|10=208|8=FIX.4.4|9=70|35=0|34=156|49=EXEC_SERVER|52=20260228-02:48:27.222|56=MINIFIX_CLIENT|10=206|8=FIX.4.4|9=70|35=0|34=157|49=EXEC_SERVER|52=20260228-02:48:57.220|56=MINIFIX_CLIENT|10=208|8=FIX.4.4|9=168|35=8|34=158|49=EXEC_SERVER|52=20260228-02:49:11.465|56=MINIFIX_CLIENT|6=0|11=ORD_B1_001|14=0|17=EXEC_1772246951465|37=GEN_1772246951465|39=0|54=1|55=GOOG|150=0|151=100|10=034|8=FIX.4.4|9=167|35=8|34=159|49=EXEC_SERVER|52=20260228-02:49:11.468|56=MINIFIX_CLIENT|6=0|11=ORD_B1_002|14=0|17=EXEC_1772246951468|37=GEN_1772246951468|39=0|54=1|55=AAPL|150=0|151=50|10=242|8=FIX.4.4|9=168|35=8|34=160|49=EXEC_SERVER|52=20260228-02:49:11.470|56=MINIFIX_CLIENT|6=0|11=ORD_B1_003|14=0|17=EXEC_1772246951470|37=GEN_1772246951470|39=0|54=1|55=TSLA|150=0|151=200|10=026|8=FIX.4.4|9=167|35=8|34=161|49=EXEC_SERVER|52=20260228-02:49:11.472|56=MINIFIX_CLIENT|6=0|11=ORD_B1_004|14=0|17=EXEC_1772246951472|37=GEN_1772246951472|39=0|54=1|55=MSFT|150=0|151=75|10=001|8=FIX.4.4|9=168|35=8|34=162|49=EXEC_SERVER|52=20260228-02:49:11.473|56=MINIFIX_CLIENT|6=0|11=ORD_B1_005|14=0|17=EXEC_1772246951473|37=GEN_1772246951473|39=0|54=1|55=AMZN|150=0|151=150|10=045|8=FIX.4.4|9=168|35=8|34=163|49=EXEC_SERVER|52=20260228-02:49:11.474|56=MINIFIX_CLIENT|6=0|11=ORD_B1_006|14=0|17=EXEC_1772246951474|37=GEN_1772246951474|39=0|54=1|55=META|150=0|151=120|10=032|8=FIX.4.4|9=168|35=8|34=164|49=EXEC_SERVER|52=20260228-02:49:11.478|56=MINIFIX_CLIENT|6=0|11=ORD_B1_007|14=0|17=EXEC_1772246951477|37=GEN_1772246951477|39=0|54=1|55=NVDA|150=0|151=300|10=046|8=FIX.4.4|9=167|35=8|34=165|49=EXEC_SERVER|52=20260228-02:49:11.489|56=MINIFIX_CLIENT|6=0|11=ORD_B1_008|14=0|17=EXEC_1772246951489|37=GEN_1772246951489|39=0|54=1|55=NFLX|150=0|151=40|10=023|8=FIX.4.4|9=167|35=8|34=166|49=EXEC_SERVER|52=20260228-02:49:11.492|56=MINIFIX_CLIENT|6=0|11=ORD_B1_009|14=0|17=EXEC_1772246951492|37=GEN_1772246951492|39=0|54=1|55=ADBE|150=0|151=60|10=221|8=FIX.4.4|9=168|35=8|34=167|49=EXEC_SERVER|52=20260228-02:49:11.495|56=MINIFIX_CLIENT|6=0|11=ORD_B1_010|14=0|17=EXEC_1772246951495|37=GEN_1772246951495|39=0|54=1|55=INTC|150=0|151=500|10=049|8=FIX.4.4|9=167|35=8|34=168|49=EXEC_SERVER|52=20260228-02:49:11.592|56=MINIFIX_CLIENT|6=0|11=ORD_B1_011|14=0|17=EXEC_1772246951592|37=GEN_1772246951592|39=0|54=1|55=AMD|150=0|151=250|10=210|8=FIX.4.4|9=166|35=8|34=169|49=EXEC_SERVER|52=20260228-02:49:11.660|56=MINIFIX_CLIENT|6=0|11=ORD_B1_012|14=0|17=EXEC_1772246951660|37=GEN_1772246951660|39=0|54=1|55=CRM|150=0|151=90|10=169|8=FIX.4.4|9=168|35=8|34=170|49=EXEC_SERVER|52=20260228-02:49:11.662|56=MINIFIX_CLIENT|6=0|11=ORD_B1_013|14=0|17=EXEC_1772246951662|37=GEN_1772246951662|39=0|54=1|55=ORCL|150=0|151=110|10=033|8=FIX.4.4|9=168|35=8|34=171|49=EXEC_SERVER|52=20260228-02:49:11.666|56=MINIFIX_CLIENT|6=0|11=ORD_B1_014|14=0|17=EXEC_1772246951666|37=GEN_1772246951666|39=0|54=1|55=CSCO|150=0|151=400|10=041|8=FIX.4.4|9=167|35=8|34=172|49=EXEC_SERVER|52=20260228-02:49:11.680|56=MINIFIX_CLIENT|6=0|11=ORD_B1_015|14=0|17=EXEC_1772246951679|37=GEN_1772246951678|39=0|54=1|55=IBM|150=0|151=130|10=221|8=FIX.4.4|9=168|35=8|34=173|49=EXEC_SERVER|52=20260228-02:49:11.687|56=MINIFIX_CLIENT|6=0|11=ORD_B1_016|14=0|17=EXEC_1772246951686|37=GEN_1772246951686|39=0|54=1|55=QCOM|150=0|151=180|10=065|8=FIX.4.4|9=166|35=8|34=174|49=EXEC_SERVER|52=20260228-02:49:11.689|56=MINIFIX_CLIENT|6=0|11=ORD_B1_017|14=0|17=EXEC_1772246951689|37=GEN_1772246951689|39=0|54=1|55=TXN|150=0|151=70|10=225|8=FIX.4.4|9=166|35=8|34=175|49=EXEC_SERVER|52=20260228-02:49:11.692|56=MINIFIX_CLIENT|6=0|11=ORD_B1_018|14=0|17=EXEC_1772246951692|37=GEN_1772246951692|39=0|54=1|55=MU|150=0|151=350|10=170|8=FIX.4.4|9=167|35=8|34=176|49=EXEC_SERVER|52=20260228-02:49:11.694|56=MINIFIX_CLIENT|6=0|11=ORD_B1_019|14=0|17=EXEC_1772246951694|37=GEN_1772246951694|39=0|54=1|55=AVGO|150=0|151=20|10=008|8=FIX.4.4|9=168|35=8|34=177|49=EXEC_SERVER|52=20260228-02:49:11.698|56=MINIFIX_CLIENT|6=0|11=ORD_B1_020|14=0|17=EXEC_1772246951698|37=GEN_1772246951698|39=0|54=1|55=SHOP|150=0|151=220|10=077|8=FIX.4.4|9=168|35=8|34=178|49=EXEC_SERVER|52=20260228-02:49:11.702|56=MINIFIX_CLIENT|6=0|11=ORD_B1_021|14=0|17=EXEC_1772246951701|37=GEN_1772246951701|39=0|54=1|55=SNOW|150=0|151=140|10=049|8=FIX.4.4|9=169|35=8|34=179|49=EXEC_SERVER|52=20260228-02:49:11.709|56=MINIFIX_CLIENT|6=0|11=ORD_B1_022|14=0|17=EXEC_1772246951709|37=GEN_1772246951709|39=0|54=1|55=PLTR|150=0|151=1000|10=114|8=FIX.4.4|9=166|35=8|34=180|49=EXEC_SERVER|52=20260228-02:49:11.713|56=MINIFIX_CLIENT|6=0|11=ORD_B1_023|14=0|17=EXEC_1772246951713|37=GEN_1772246951711|39=0|54=1|55=SQ|150=0|151=280|10=146|8=FIX.4.4|9=168|35=8|34=181|49=EXEC_SERVER|52=20260228-02:49:11.718|56=MINIFIX_CLIENT|6=0|11=ORD_B1_024|14=0|17=EXEC_1772246951718|37=GEN_1772246951718|39=0|54=1|55=PYPL|150=0|151=300|10=065|8=FIX.4.4|9=168|35=8|34=182|49=EXEC_SERVER|52=20260228-02:49:11.720|56=MINIFIX_CLIENT|6=0|11=ORD_B1_025|14=0|17=EXEC_1772246951719|37=GEN_1772246951719|39=0|54=1|55=COIN|150=0|151=100|10=032|8=FIX.4.4|9=164|35=8|34=183|49=EXEC_SERVER|52=20260228-02:49:11.722|56=MINIFIX_CLIENT|6=0|11=ORD_B1_026|14=0|17=EXEC_1772246951721|37=GEN_1772246951721|39=0|54=1|55=V|150=0|151=85|10=027|8=FIX.4.4|9=165|35=8|34=184|49=EXEC_SERVER|52=20260228-02:49:11.728|56=MINIFIX_CLIENT|6=0|11=ORD_B1_027|14=0|17=EXEC_1772246951728|37=GEN_1772246951728|39=0|54=1|55=MA|150=0|151=65|10=104|8=FIX.4.4|9=167|35=8|34=185|49=EXEC_SERVER|52=20260228-02:49:11.741|56=MINIFIX_CLIENT|6=0|11=ORD_B1_028|14=0|17=EXEC_1772246951740|37=GEN_1772246951740|39=0|54=1|55=JPM|150=0|151=150|10=223|8=FIX.4.4|9=167|35=8|34=186|49=EXEC_SERVER|52=20260228-02:49:11.744|56=MINIFIX_CLIENT|6=0|11=ORD_B1_029|14=0|17=EXEC_1772246951744|37=GEN_1772246951744|39=0|54=1|55=BAC|150=0|151=600|10=203|8=FIX.4.4|9=165|35=8|34=187|49=EXEC_SERVER|52=20260228-02:49:11.747|56=MINIFIX_CLIENT|6=0|11=ORD_B1_030|14=0|17=EXEC_1772246951747|37=GEN_1772246951747|39=0|54=1|55=GS|150=0|151=45|10=114|8=FIX.4.4|9=166|35=8|34=188|49=EXEC_SERVER|52=20260228-02:49:11.902|56=MINIFIX_CLIENT|6=0|11=ORD_B1_031|14=0|17=EXEC_1772246951902|37=GEN_1772246951902|39=0|54=1|55=MS|150=0|151=120|10=144|8=FIX.4.4|9=167|35=8|34=189|49=EXEC_SERVER|52=20260228-02:49:11.904|56=MINIFIX_CLIENT|6=0|11=ORD_B1_032|14=0|17=EXEC_1772246951904|37=GEN_1772246951904|39=0|54=1|55=WFC|150=0|151=450|10=223|8=FIX.4.4|9=165|35=8|34=190|49=EXEC_SERVER|52=20260228-02:49:11.907|56=MINIFIX_CLIENT|6=0|11=ORD_B1_033|14=0|17=EXEC_1772246951907|37=GEN_1772246951907|39=0|54=1|55=C|150=0|151=400|10=061|8=FIX.4.4|9=169|35=8|34=191|49=EXEC_SERVER|52=20260228-02:49:11.910|56=MINIFIX_CLIENT|6=0|11=ORD_B1_034|14=0|17=EXEC_1772246951909|37=GEN_1772246951909|39=0|54=1|55=BRK.B|150=0|151=100|10=074|8=FIX.4.4|9=166|35=8|34=192|49=EXEC_SERVER|52=20260228-02:49:11.921|56=MINIFIX_CLIENT|6=0|11=ORD_B1_035|14=0|17=EXEC_1772246951921|37=GEN_1772246951921|39=0|54=1|55=BLK|150=0|151=25|10=159|8=FIX.4.4|9=166|35=8|34=193|49=EXEC_SERVER|52=20260228-02:49:11.925|56=MINIFIX_CLIENT|6=0|11=ORD_B1_036|14=0|17=EXEC_1772246951924|37=GEN_1772246951924|39=0|54=1|55=AXP|150=0|151=95|10=194|8=FIX.4.4|9=168|35=8|34=194|49=EXEC_SERVER|52=20260228-02:49:11.931|56=MINIFIX_CLIENT|6=0|11=ORD_B1_037|14=0|17=EXEC_1772246951930|37=GEN_1772246951930|39=0|54=1|55=SCHW|150=0|151=240|10=049|8=FIX.4.4|9=166|35=8|34=195|49=EXEC_SERVER|52=20260228-02:49:11.933|56=MINIFIX_CLIENT|6=0|11=ORD_B1_038|14=0|17=EXEC_1772246951933|37=GEN_1772246951933|39=0|54=1|55=T|150=0|151=1200|10=133|8=FIX.4.4|9=166|35=8|34=196|49=EXEC_SERVER|52=20260228-02:49:11.935|56=MINIFIX_CLIENT|6=0|11=ORD_B1_039|14=0|17=EXEC_1772246951935|37=GEN_1772246951935|39=0|54=1|55=VZ|150=0|151=900|10=191|8=FIX.4.4|9=168|35=8|34=197|49=EXEC_SERVER|52=20260228-02:49:11.937|56=MINIFIX_CLIENT|6=0|11=ORD_B1_040|14=0|17=EXEC_1772246951936|37=GEN_1772246951936|39=0|54=1|55=TMUS|150=0|151=140|10=083|8=FIX.4.4|9=167|35=8|34=198|49=EXEC_SERVER|52=20260228-02:49:12.043|56=MINIFIX_CLIENT|6=0|11=ORD_B1_041|14=0|17=EXEC_1772246952043|37=GEN_1772246952043|39=0|54=1|55=DIS|150=0|151=200|10=201|8=FIX.4.4|9=167|35=8|34=199|49=EXEC_SERVER|52=20260228-02:49:12.048|56=MINIFIX_CLIENT|6=0|11=ORD_B1_042|14=0|17=EXEC_1772246952048|37=GEN_1772246952048|39=0|54=1|55=NFLX|150=0|151=55|10=010|8=FIX.4.4|9=169|35=8|34=200|49=EXEC_SERVER|52=20260228-02:49:12.051|56=MINIFIX_CLIENT|6=0|11=ORD_B1_043|14=0|17=EXEC_1772246952050|37=GEN_1772246952050|39=0|54=1|55=CMCSA|150=0|151=380|10=072|8=FIX.4.4|9=168|35=8|34=201|49=EXEC_SERVER|52=20260228-02:49:12.054|56=MINIFIX_CLIENT|6=0|11=ORD_B1_044|14=0|17=EXEC_1772246952054|37=GEN_1772246952054|39=0|54=1|55=SONY|150=0|151=110|10=045|8=FIX.4.4|9=168|35=8|34=202|49=EXEC_SERVER|52=20260228-02:49:12.057|56=MINIFIX_CLIENT|6=0|11=ORD_B1_045|14=0|17=EXEC_1772246952056|37=GEN_1772246952056|39=0|54=1|55=UBER|150=0|151=450|10=034|8=FIX.4.4|9=168|35=8|34=203|49=EXEC_SERVER|52=20260228-02:49:12.063|56=MINIFIX_CLIENT|6=0|11=ORD_B1_046|14=0|17=EXEC_1772246952063|37=GEN_1772246952063|39=0|54=1|55=LYFT|150=0|151=600|10=043|8=FIX.4.4|9=168|35=8|34=204|49=EXEC_SERVER|52=20260228-02:49:12.068|56=MINIFIX_CLIENT|6=0|11=ORD_B1_047|14=0|17=EXEC_1772246952068|37=GEN_1772246952068|39=0|54=1|55=ABNB|150=0|151=130|10=014|8=FIX.4.4|9=167|35=8|34=205|49=EXEC_SERVER|52=20260228-02:49:12.070|56=MINIFIX_CLIENT|6=0|11=ORD_B1_048|14=0|17=EXEC_1772246952069|37=GEN_1772246952069|39=0|54=1|55=BKNG|150=0|151=10|10=230|8=FIX.4.4|9=167|35=8|34=206|49=EXEC_SERVER|52=20260228-02:49:12.073|56=MINIFIX_CLIENT|6=0|11=ORD_B1_049|14=0|17=EXEC_1772246952072|37=GEN_1772246952072|39=0|54=1|55=EXPE|150=0|151=80|10=246|8=FIX.4.4|9=167|35=8|34=207|49=EXEC_SERVER|52=20260228-02:49:12.074|56=MINIFIX_CLIENT|6=0|11=ORD_B1_050|14=0|17=EXEC_1772246952074|37=GEN_1772246952074|39=0|54=1|55=DAL|150=0|151=400|10=191|8=FIX.4.4|9=167|35=8|34=208|49=EXEC_SERVER|52=20260228-02:49:12.185|56=MINIFIX_CLIENT|6=0|11=ORD_B1_051|14=0|17=EXEC_1772246952185|37=GEN_1772246952185|39=0|54=1|55=UAL|150=0|151=350|10=223|8=FIX.4.4|9=167|35=8|34=209|49=EXEC_SERVER|52=20260228-02:49:12.188|56=MINIFIX_CLIENT|6=0|11=ORD_B1_052|14=0|17=EXEC_1772246952188|37=GEN_1772246952188|39=0|54=1|55=AAL|150=0|151=500|10=211|8=FIX.4.4|9=167|35=8|34=210|49=EXEC_SERVER|52=20260228-02:49:12.190|56=MINIFIX_CLIENT|6=0|11=ORD_B1_053|14=0|17=EXEC_1772246952190|37=GEN_1772246952190|39=0|54=1|55=LUV|150=0|151=280|10=229|8=FIX.4.4|9=165|35=8|34=211|49=EXEC_SERVER|52=20260228-02:49:12.212|56=MINIFIX_CLIENT|6=0|11=ORD_B1_054|14=0|17=EXEC_1772246952212|37=GEN_1772246952212|39=0|54=1|55=BA|150=0|151=90|10=049|8=FIX.4.4|9=167|35=8|34=212|49=EXEC_SERVER|52=20260228-02:49:12.217|56=MINIFIX_CLIENT|6=0|11=ORD_B1_055|14=0|17=EXEC_1772246952217|37=GEN_1772246952217|39=0|54=1|55=CAT|150=0|151=110|10=194|8=FIX.4.4|9=165|35=8|34=213|49=EXEC_SERVER|52=20260228-02:49:12.218|56=MINIFIX_CLIENT|6=0|11=ORD_B1_056|14=0|17=EXEC_1772246952218|37=GEN_1772246952218|39=0|54=1|55=DE|150=0|151=75|10=080|8=FIX.4.4|9=166|35=8|34=214|49=EXEC_SERVER|52=20260228-02:49:12.219|56=MINIFIX_CLIENT|6=0|11=ORD_B1_057|14=0|17=EXEC_1772246952219|37=GEN_1772246952219|39=0|54=1|55=GE|150=0|151=210|10=128|8=FIX.4.4|9=167|35=8|34=215|49=EXEC_SERVER|52=20260228-02:49:12.220|56=MINIFIX_CLIENT|6=0|11=ORD_B1_058|14=0|17=EXEC_1772246952220|37=GEN_1772246952220|39=0|54=1|55=HON|150=0|151=130|10=197|8=FIX.4.4|9=167|35=8|34=216|49=EXEC_SERVER|52=20260228-02:49:12.222|56=MINIFIX_CLIENT|6=0|11=ORD_B1_059|14=0|17=EXEC_1772246952222|37=GEN_1772246952222|39=0|54=1|55=MMM|150=0|151=160|10=210|8=FIX.4.4|9=166|35=8|34=217|49=EXEC_SERVER|52=20260228-02:49:12.222|56=MINIFIX_CLIENT|6=0|11=ORD_B1_060|14=0|17=EXEC_1772246952222|37=GEN_1772246952222|39=0|54=1|55=LMT|150=0|151=50|10=158|8=FIX.4.4|9=166|35=8|34=218|49=EXEC_SERVER|52=20260228-02:49:12.325|56=MINIFIX_CLIENT|6=0|11=ORD_B1_061|14=0|17=EXEC_1772246952324|37=GEN_1772246952324|39=0|54=1|55=NOC|150=0|151=45|10=161|8=FIX.4.4|9=167|35=8|34=219|49=EXEC_SERVER|52=20260228-02:49:12.327|56=MINIFIX_CLIENT|6=0|11=ORD_B1_062|14=0|17=EXEC_1772246952327|37=GEN_1772246952326|39=0|54=1|55=RTX|150=0|151=220|10=244|8=FIX.4.4|9=166|35=8|34=220|49=EXEC_SERVER|52=20260228-02:49:12.331|56=MINIFIX_CLIENT|6=0|11=ORD_B1_063|14=0|17=EXEC_1772246952331|37=GEN_1772246952331|39=0|54=1|55=F|150=0|151=1500|10=088|8=FIX.4.4|9=166|35=8|34=221|49=EXEC_SERVER|52=20260228-02:49:12.334|56=MINIFIX_CLIENT|6=0|11=ORD_B1_064|14=0|17=EXEC_1772246952333|37=GEN_1772246952333|39=0|54=1|55=GM|150=0|151=600|10=127|8=FIX.4.4|9=168|35=8|34=222|49=EXEC_SERVER|52=20260228-02:49:12.336|56=MINIFIX_CLIENT|6=0|11=ORD_B1_065|14=0|17=EXEC_1772246952336|37=GEN_1772246952336|39=0|54=1|55=RIVN|150=0|151=800|10=056|8=FIX.4.4|9=169|35=8|34=223|49=EXEC_SERVER|52=20260228-02:49:12.339|56=MINIFIX_CLIENT|6=0|11=ORD_B1_066|14=0|17=EXEC_1772246952339|37=GEN_1772246952339|39=0|54=1|55=LCID|150=0|151=2000|10=075|8=FIX.4.4|9=168|35=8|34=224|49=EXEC_SERVER|52=20260228-02:49:12.352|56=MINIFIX_CLIENT|6=0|11=ORD_B1_067|14=0|17=EXEC_1772246952350|37=GEN_1772246952350|39=0|54=1|55=NIO|150=0|151=1200|10=004|8=FIX.4.4|9=167|35=8|34=225|49=EXEC_SERVER|52=20260228-02:49:12.358|56=MINIFIX_CLIENT|6=0|11=ORD_B1_068|14=0|17=EXEC_1772246952358|37=GEN_1772246952358|39=0|54=1|55=XOM|150=0|151=400|10=250|8=FIX.4.4|9=167|35=8|34=226|49=EXEC_SERVER|52=20260228-02:49:12.361|56=MINIFIX_CLIENT|6=0|11=ORD_B1_069|14=0|17=EXEC_1772246952361|37=GEN_1772246952361|39=0|54=1|55=CVX|150=0|151=300|10=230|8=FIX.4.4|9=166|35=8|34=227|49=EXEC_SERVER|52=20260228-02:49:12.366|56=MINIFIX_CLIENT|6=0|11=ORD_B1_070|14=0|17=EXEC_1772246952365|37=GEN_1772246952365|39=0|54=1|55=BP|150=0|151=700|10=144|8=FIX.4.4|9=168|35=8|34=228|49=EXEC_SERVER|52=20260228-02:49:12.467|56=MINIFIX_CLIENT|6=0|11=ORD_B1_071|14=0|17=EXEC_1772246952467|37=GEN_1772246952467|39=0|54=1|55=SHEL|150=0|151=250|10=054|8=FIX.4.4|9=167|35=8|34=229|49=EXEC_SERVER|52=20260228-02:49:12.470|56=MINIFIX_CLIENT|6=0|11=ORD_B1_072|14=0|17=EXEC_1772246952470|37=GEN_1772246952470|39=0|54=1|55=TTE|150=0|151=180|10=232|8=FIX.4.4|9=167|35=8|34=230|49=EXEC_SERVER|52=20260228-02:49:12.473|56=MINIFIX_CLIENT|6=0|11=ORD_B1_073|14=0|17=EXEC_1772246952473|37=GEN_1772246952473|39=0|54=1|55=PFE|150=0|151=900|10=216|8=FIX.4.4|9=168|35=8|34=231|49=EXEC_SERVER|52=20260228-02:49:12.475|56=MINIFIX_CLIENT|6=0|11=ORD_B1_074|14=0|17=EXEC_1772246952475|37=GEN_1772246952475|39=0|54=1|55=MRNA|150=0|151=110|10=045|8=FIX.4.4|9=167|35=8|34=232|49=EXEC_SERVER|52=20260228-02:49:12.480|56=MINIFIX_CLIENT|6=0|11=ORD_B1_075|14=0|17=EXEC_1772246952479|37=GEN_1772246952479|39=0|54=1|55=BNTX|150=0|151=95|10=028|8=FIX.4.4|9=167|35=8|34=233|49=EXEC_SERVER|52=20260228-02:49:12.480|56=MINIFIX_CLIENT|6=0|11=ORD_B1_076|14=0|17=EXEC_1772246952480|37=GEN_1772246952480|39=0|54=1|55=JNJ|150=0|151=200|10=216|8=FIX.4.4|9=166|35=8|34=234|49=EXEC_SERVER|52=20260228-02:49:12.482|56=MINIFIX_CLIENT|6=0|11=ORD_B1_077|14=0|17=EXEC_1772246952482|37=GEN_1772246952482|39=0|54=1|55=UNH|150=0|151=60|10=188|8=FIX.4.4|9=167|35=8|34=235|49=EXEC_SERVER|52=20260228-02:49:12.486|56=MINIFIX_CLIENT|6=0|11=ORD_B1_078|14=0|17=EXEC_1772246952486|37=GEN_1772246952486|39=0|54=1|55=CVS|150=0|151=340|10=253|8=FIX.4.4|9=167|35=8|34=236|49=EXEC_SERVER|52=20260228-02:49:12.487|56=MINIFIX_CLIENT|6=0|11=ORD_B1_079|14=0|17=EXEC_1772246952487|37=GEN_1772246952487|39=0|54=1|55=WMT|150=0|151=450|10=016|8=FIX.4.4|9=167|35=8|34=237|49=EXEC_SERVER|52=20260228-02:49:12.501|56=MINIFIX_CLIENT|6=0|11=ORD_B1_080|14=0|17=EXEC_1772246952501|37=GEN_1772246952501|39=0|54=1|55=TGT|150=0|151=180|10=217|8=FIX.4.4|9=167|35=8|34=238|49=EXEC_SERVER|52=20260228-02:49:12.609|56=MINIFIX_CLIENT|6=0|11=ORD_B1_081|14=0|17=EXEC_1772246952609|37=GEN_1772246952609|39=0|54=1|55=COST|150=0|151=75|10=019|8=FIX.4.4|9=166|35=8|34=239|49=EXEC_SERVER|52=20260228-02:49:12.611|56=MINIFIX_CLIENT|6=0|11=ORD_B1_082|14=0|17=EXEC_1772246952611|37=GEN_1772246952611|39=0|54=1|55=HD|150=0|151=110|10=120|8=FIX.4.4|9=167|35=8|34=240|49=EXEC_SERVER|52=20260228-02:49:12.615|56=MINIFIX_CLIENT|6=0|11=ORD_B1_083|14=0|17=EXEC_1772246952615|37=GEN_1772246952615|39=0|54=1|55=LOW|150=0|151=130|10=230|8=FIX.4.4|9=167|35=8|34=241|49=EXEC_SERVER|52=20260228-02:49:12.618|56=MINIFIX_CLIENT|6=0|11=ORD_B1_084|14=0|17=EXEC_1772246952618|37=GEN_1772246952618|39=0|54=1|55=MCD|150=0|151=140|10=212|8=FIX.4.4|9=168|35=8|34=242|49=EXEC_SERVER|52=20260228-02:49:12.620|56=MINIFIX_CLIENT|6=0|11=ORD_B1_085|14=0|17=EXEC_1772246952620|37=GEN_1772246952620|39=0|54=1|55=SBUX|150=0|151=260|10=051|8=FIX.4.4|9=166|35=8|34=243|49=EXEC_SERVER|52=20260228-02:49:12.624|56=MINIFIX_CLIENT|6=0|11=ORD_B1_086|14=0|17=EXEC_1772246952623|37=GEN_1772246952623|39=0|54=1|55=KO|150=0|151=500|10=146|8=FIX.4.4|9=167|35=8|34=244|49=EXEC_SERVER|52=20260228-02:49:12.625|56=MINIFIX_CLIENT|6=0|11=ORD_B1_087|14=0|17=EXEC_1772246952625|37=GEN_1772246952625|39=0|54=1|55=PEP|150=0|151=300|10=227|8=FIX.4.4|9=167|35=8|34=245|49=EXEC_SERVER|52=20260228-02:49:12.642|56=MINIFIX_CLIENT|6=0|11=ORD_B1_088|14=0|17=EXEC_1772246952642|37=GEN_1772246952642|39=0|54=1|55=NKE|150=0|151=220|10=220|8=FIX.4.4|9=169|35=8|34=246|49=EXEC_SERVER|52=20260228-02:49:12.658|56=MINIFIX_CLIENT|6=0|11=ORD_B1_089|14=0|17=EXEC_1772246952658|37=GEN_1772246952658|39=0|54=1|55=ADDYY|150=0|151=100|10=143|8=FIX.4.4|9=167|35=8|34=247|49=EXEC_SERVER|52=20260228-02:49:12.659|56=MINIFIX_CLIENT|6=0|11=ORD_B1_090|14=0|17=EXEC_1772246952659|37=GEN_1772246952659|39=0|54=1|55=LULU|150=0|151=55|10=041|8=FIX.4.4|9=166|35=8|34=248|49=EXEC_SERVER|52=20260228-02:49:12.768|56=MINIFIX_CLIENT|6=0|11=ORD_B1_091|14=0|17=EXEC_1772246952768|37=GEN_1772246952768|39=0|54=1|55=PG|150=0|151=240|10=174|8=FIX.4.4|9=166|35=8|34=249|49=EXEC_SERVER|52=20260228-02:49:12.772|56=MINIFIX_CLIENT|6=0|11=ORD_B1_092|14=0|17=EXEC_1772246952772|37=GEN_1772246952772|39=0|54=1|55=EL|150=0|151=120|10=152|8=FIX.4.4|9=166|35=8|34=250|49=EXEC_SERVER|52=20260228-02:49:12.776|56=MINIFIX_CLIENT|6=0|11=ORD_B1_093|14=0|17=EXEC_1772246952776|37=GEN_1772246952776|39=0|54=1|55=CL|150=0|151=300|10=155|8=FIX.4.4|9=167|35=8|34=251|49=EXEC_SERVER|52=20260228-02:49:12.778|56=MINIFIX_CLIENT|6=0|11=ORD_B1_094|14=0|17=EXEC_1772246952778|37=GEN_1772246952778|39=0|54=1|55=UPS|150=0|151=140|10=015|8=FIX.4.4|9=167|35=8|34=252|49=EXEC_SERVER|52=20260228-02:49:12.779|56=MINIFIX_CLIENT|6=0|11=ORD_B1_095|14=0|17=EXEC_1772246952779|37=GEN_1772246952779|39=0|54=1|55=FDX|150=0|151=100|10=250|8=FIX.4.4|9=166|35=8|34=253|49=EXEC_SERVER|52=20260228-02:49:12.786|56=MINIFIX_CLIENT|6=0|11=ORD_B1_096|14=0|17=EXEC_1772246952786|37=GEN_1772246952786|39=0|54=1|55=CAT|150=0|151=90|10=195|8=FIX.4.4|9=165|35=8|34=254|49=EXEC_SERVER|52=20260228-02:49:12.798|56=MINIFIX_CLIENT|6=0|11=ORD_B1_097|14=0|17=EXEC_1772246952798|37=GEN_1772246952798|39=0|54=1|55=Z|150=0|151=400|10=122|8=FIX.4.4|9=168|35=8|34=255|49=EXEC_SERVER|52=20260228-02:49:12.801|56=MINIFIX_CLIENT|6=0|11=ORD_B1_098|14=0|17=EXEC_1772246952801|37=GEN_1772246952801|39=0|54=1|55=SPOT|150=0|151=130|10=062|8=FIX.4.4|9=168|35=8|34=256|49=EXEC_SERVER|52=20260228-02:49:12.806|56=MINIFIX_CLIENT|6=0|11=ORD_B1_099|14=0|17=EXEC_1772246952806|37=GEN_1772246952806|39=0|54=1|55=DASH|150=0|151=250|10=044|8=FIX.4.4|9=168|35=8|34=257|49=EXEC_SERVER|52=20260228-02:49:12.816|56=MINIFIX_CLIENT|6=0|11=ORD_B1_100|14=0|17=EXEC_1772246952815|37=GEN_1772246952815|39=0|54=1|55=HOOD|150=0|151=800|10=040|8=FIX.4.4|9=70|35=0|34=258|49=EXEC_SERVER|52=20260228-02:49:43.218|56=MINIFIX_CLIENT|10=213|8=FIX.4.4|9=70|35=0|34=259|49=EXEC_SERVER|52=20260228-02:50:13.219|56=MINIFIX_CLIENT|10=204|8=FIX.4.4|9=70|35=0|34=260|49=EXEC_SERVER|52=20260228-02:50:43.214|56=MINIFIX_CLIENT|10=194|8=FIX.4.4|9=70|35=0|34=261|49=EXEC_SERVER|52=20260228-02:51:13.215|56=MINIFIX_CLIENT|10=194|8=FIX.4.4|9=70|35=0|34=262|49=EXEC_SERVER|52=20260228-02:51:43.213|56=MINIFIX_CLIENT|10=196|8=FIX.4.4|9=70|35=0|34=263|49=EXEC_SERVER|52=20260228-02:52:13.213|56=MINIFIX_CLIENT|10=195|8=FIX.4.4|9=70|35=0|34=264|49=EXEC_SERVER|52=20260228-02:52:43.213|56=MINIFIX_CLIENT|10=199|8=FIX.4.4|9=70|35=0|34=265|49=EXEC_SERVER|52=20260228-02:53:13.208|56=MINIFIX_CLIENT|10=202|8=FIX.4.4|9=70|35=0|34=266|49=EXEC_SERVER|52=20260228-02:53:43.207|56=MINIFIX_CLIENT|10=205|8=FIX.4.4|9=70|35=0|34=267|49=EXEC_SERVER|52=20260228-02:54:13.208|56=MINIFIX_CLIENT|10=205|8=FIX.4.4|9=70|35=0|34=268|49=EXEC_SERVER|52=20260228-02:54:43.206|56=MINIFIX_CLIENT|10=207|8=FIX.4.4|9=70|35=0|34=269|49=EXEC_SERVER|52=20260228-02:55:13.207|56=MINIFIX_CLIENT|10=207|8=FIX.4.4|9=70|35=0|34=270|49=EXEC_SERVER|52=20260228-02:55:43.205|56=MINIFIX_CLIENT|10=200|8=FIX.4.4|9=70|35=0|34=271|49=EXEC_SERVER|52=20260228-02:56:13.206|56=MINIFIX_CLIENT|10=200|8=FIX.4.4|9=70|35=0|34=272|49=EXEC_SERVER|52=20260228-02:56:43.201|56=MINIFIX_CLIENT|10=199|8=FIX.4.4|9=70|35=0|34=273|49=EXEC_SERVER|52=20260228-02:57:13.202|56=MINIFIX_CLIENT|10=199|8=FIX.4.4|9=70|35=0|34=274|49=EXEC_SERVER|52=20260228-02:57:43.202|56=MINIFIX_CLIENT|10=203|8=FIX.4.4|9=70|35=0|34=275|49=EXEC_SERVER|52=20260228-02:58:13.201|56=MINIFIX_CLIENT|10=201|8=FIX.4.4|9=70|35=0|34=276|49=EXEC_SERVER|52=20260228-02:58:43.200|56=MINIFIX_CLIENT|10=204|