8=FIX.4.4|9=80|35=A|34=1|49=EXEC_SERVER|52=20260302-10:33:56.340|56=MINIFIX_CLIENT|98=0|108=30|10=131|8=FIX.4.4|9=68|35=0|34=2|49=EXEC_SERVER|52=20260302-10:34:26.853|56=MINIFIX_CLIENT|10=103|8=FIX.4.4|9=166|35=8|34=3|49=EXEC_SERVER|52=20260302-10:34:26.980|56=MINIFIX_CLIENT|6=0|11=2067598575|14=0|17=EXEC_1772447666979|37=GEN_1772447666978|39=0|54=2|55=GOOG|150=0|151=100|10=062|8=FIX.4.4|9=166|35=8|34=4|49=EXEC_SERVER|52=20260302-10:34:53.377|56=MINIFIX_CLIENT|6=0|11=2067598576|14=0|17=EXEC_1772447693377|37=GEN_1772447693377|39=0|54=2|55=GOOG|150=0|151=100|10=049|8=FIX.4.4|9=166|35=8|34=5|49=EXEC_SERVER|52=20260302-10:35:18.752|56=MINIFIX_CLIENT|6=0|11=2067598577|14=0|17=EXEC_1772447718752|37=GEN_1772447718752|39=0|54=1|55=GOOG|150=0|151=150|10=044|8=FIX.4.4|9=249|35=8|34=6|49=EXEC_SERVER|52=20260302-10:35:18.797|56=MINIFIX_CLIENT|6=50|11=TRADE_28a44c92-ac1f-4244-8467-2c07a1f28cfe|14=100|17=28a44c92-ac1f-4244-8467-2c07a1f28cfe|31=50|32=100|37=3a0b9d77-3218-4355-b7a9-2b30074357b9|39=2|54=1|55=GOOG|150=F|151=0|10=098|8=FIX.4.4|9=247|35=8|34=7|49=EXEC_SERVER|52=20260302-10:35:18.813|56=MINIFIX_CLIENT|6=51|11=TRADE_6237f919-b649-4614-ae28-77108f58ba54|14=50|17=6237f919-b649-4614-ae28-77108f58ba54|31=51|32=50|37=3a0b9d77-3218-4355-b7a9-2b30074357b9|39=2|54=1|55=GOOG|150=F|151=0|10=172|8=FIX.4.4|9=68|35=0|34=8|49=EXEC_SERVER|52=20260302-10:35:48.849|56=MINIFIX_CLIENT|10=119|8=FIX.4.4|9=68|35=0|34=9|49=EXEC_SERVER|52=20260302-10:36:18.846|56=MINIFIX_CLIENT|10=115|8=FIX.4.4|9=69|35=0|34=10|49=EXEC_SERVER|52=20260302-10:36:48.849|56=MINIFIX_CLIENT|10=162|8=FIX.4.4|9=69|35=0|34=11|49=EXEC_SERVER|52=20260302-10:37:18.840|56=MINIFIX_CLIENT|10=152|8=FIX.4.4|9=69|35=0|34=12|49=EXEC_SERVER|52=20260302-10:37:48.846|56=MINIFIX_CLIENT|10=162|8=FIX.4.4|9=69|35=0|34=13|49=EXEC_SERVER|52=20260302-10:38:18.840|56=MINIFIX_CLIENT|10=155|8=FIX.4.4|9=69|35=0|34=14|49=EXEC_SERVER|52=20260302-10:38:48.841|56=MINIFIX_CLIENT|10=160|8=FIX.4.4|9=69|35=0|34=15|49=EXEC_SERVER|52=20260302-10:39:18.836|56=MINIFIX_CLIENT|10=163|8=FIX.4.4|9=69|35=0|34=16|49=EXEC_SERVER|52=20260302-10:39:48.841|56=MINIFIX_CLIENT|10=163|8=FIX.4.4|9=69|35=0|34=17|49=EXEC_SERVER|52=20260302-10:40:18.836|56=MINIFIX_CLIENT|10=157|8=FIX.4.4|9=69|35=0|34=18|49=EXEC_SERVER|52=20260302-10:40:48.838|56=MINIFIX_CLIENT|10=163|8=FIX.4.4|9=69|35=0|34=19|49=EXEC_SERVER|52=20260302-10:41:18.834|56=MINIFIX_CLIENT|10=158|8=FIX.4.4|9=69|35=0|34=20|49=EXEC_SERVER|52=20260302-10:41:48.834|56=MINIFIX_CLIENT|10=153|8=FIX.4.4|9=69|35=0|34=21|49=EXEC_SERVER|52=20260302-10:42:18.831|56=MINIFIX_CLIENT|10=149|8=FIX.4.4|9=69|35=0|34=22|49=EXEC_SERVER|52=20260302-10:42:48.829|56=MINIFIX_CLIENT|10=160|8=FIX.4.4|9=69|35=0|34=23|49=EXEC_SERVER|52=20260302-10:43:18.830|56=MINIFIX_CLIENT|10=151|8=FIX.4.4|9=69|35=0|34=24|49=EXEC_SERVER|52=20260302-10:43:48.826|56=MINIFIX_CLIENT|10=160|8=FIX.4.4|9=69|35=0|34=25|49=EXEC_SERVER|52=20260302-10:44:18.828|56=MINIFIX_CLIENT|10=161|8=FIX.4.4|9=69|35=0|34=26|49=EXEC_SERVER|52=20260302-10:44:48.828|56=MINIFIX_CLIENT|10=165|8=FIX.4.4|9=69|35=0|34=27|49=EXEC_SERVER|52=20260302-10:45:18.826|56=MINIFIX_CLIENT|10=162|8=FIX.4.4|9=69|35=0|34=28|49=EXEC_SERVER|52=20260302-10:45:48.828|56=MINIFIX_CLIENT|10=168|8=FIX.4.4|9=69|35=0|34=29|49=EXEC_SERVER|52=20260302-10:46:18.831|56=MINIFIX_CLIENT|10=161|8=FIX.4.4|9=69|35=0|34=30|49=EXEC_SERVER|52=20260302-10:46:48.843|56=MINIFIX_CLIENT|10=159|