8=FIX.4.4|9=80|35=A|34=1|49=EXEC_SERVER|52=20260227-13:20:10.753|56=MINIFIX_CLIENT|98=0|108=30|10=134|8=FIX.4.4|9=166|35=8|34=2|49=EXEC_SERVER|52=20260227-13:20:14.643|56=MINIFIX_CLIENT|6=0|11=2067598415|14=0|17=EXEC_1772198414642|37=GEN_1772198414639|39=0|54=1|55=GOOG|150=0|151=100|10=019|8=FIX.4.4|9=68|35=0|34=3|49=EXEC_SERVER|52=20260227-13:20:45.236|56=MINIFIX_CLIENT|10=104|8=FIX.4.4|9=68|35=0|34=4|49=EXEC_SERVER|52=20260227-13:21:15.234|56=MINIFIX_CLIENT|10=101|8=FIX.4.4|9=68|35=0|34=5|49=EXEC_SERVER|52=20260227-13:21:45.237|56=MINIFIX_CLIENT|10=108|8=FIX.4.4|9=68|35=0|34=6|49=EXEC_SERVER|52=20260227-13:22:15.237|56=MINIFIX_CLIENT|10=107|8=FIX.4.4|9=68|35=0|34=7|49=EXEC_SERVER|52=20260227-13:22:45.235|56=MINIFIX_CLIENT|10=109|8=FIX.4.4|9=68|35=0|34=8|49=EXEC_SERVER|52=20260227-13:23:15.235|56=MINIFIX_CLIENT|10=108|8=FIX.4.4|9=68|35=0|34=9|49=EXEC_SERVER|52=20260227-13:23:45.235|56=MINIFIX_CLIENT|10=112|8=FIX.4.4|9=69|35=0|34=10|49=EXEC_SERVER|52=20260227-13:24:15.236|56=MINIFIX_CLIENT|10=152|8=FIX.4.4|9=69|35=0|34=11|49=EXEC_SERVER|52=20260227-13:24:45.232|56=MINIFIX_CLIENT|10=152|8=FIX.4.4|9=81|35=A|34=12|49=EXEC_SERVER|52=20260227-13:56:59.636|56=MINIFIX_CLIENT|98=0|108=30|10=207|8=FIX.4.4|9=167|35=8|34=13|49=EXEC_SERVER|52=20260227-13:57:05.795|56=MINIFIX_CLIENT|6=0|11=2067598417|14=0|17=EXEC_1772200625794|37=GEN_1772200625793|39=0|54=1|55=GOOG|150=0|151=100|10=075|8=FIX.4.4|9=167|35=8|34=14|49=EXEC_SERVER|52=20260227-13:57:22.526|56=MINIFIX_CLIENT|6=0|11=2067598418|14=0|17=EXEC_1772200642525|37=GEN_1772200642525|39=0|54=1|55=GOOG|150=0|151=100|10=051|8=FIX.4.4|9=69|35=0|34=15|49=EXEC_SERVER|52=20260227-13:57:52.825|56=MINIFIX_CLIENT|10=168|8=FIX.4.4|9=81|35=A|34=16|49=EXEC_SERVER|52=20260227-13:59:38.497|56=MINIFIX_CLIENT|98=0|108=30|10=216|8=FIX.4.4|9=167|35=8|34=17|49=EXEC_SERVER|52=20260227-13:59:45.409|56=MINIFIX_CLIENT|6=0|11=2067598419|14=0|17=EXEC_1772200785407|37=GEN_1772200785403|39=0|54=1|55=GOOG|150=0|151=100|10=072|8=FIX.4.4|9=81|35=A|34=18|49=EXEC_SERVER|52=20260227-14:01:11.971|56=MINIFIX_CLIENT|98=0|108=30|10=194|8=FIX.4.4|9=167|35=8|34=19|49=EXEC_SERVER|52=20260227-14:01:17.885|56=MINIFIX_CLIENT|6=0|11=2067598420|14=0|17=EXEC_1772200877885|37=GEN_1772200877883|39=0|54=1|55=GOOG|150=0|151=100|10=087|8=FIX.4.4|9=69|35=0|34=20|49=EXEC_SERVER|52=20260227-14:01:48.655|56=MINIFIX_CLIENT|10=160|8=FIX.4.4|9=69|35=0|34=21|49=EXEC_SERVER|52=20260227-14:02:18.653|56=MINIFIX_CLIENT|10=157|8=FIX.4.4|9=69|35=0|34=22|49=EXEC_SERVER|52=20260227-14:02:48.654|56=MINIFIX_CLIENT|10=162|