8=FIX.4.4|9=131|35=5|34=1|49=EXEC_SERVER|52=20260227-11:56:30.855|56=MINIFIX_CLIENT|58=Invalid Logon message: Tag appears more than once, field=98|10=019|8=FIX.4.4|9=80|35=A|34=2|49=EXEC_SERVER|52=20260227-12:25:41.269|56=MINIFIX_CLIENT|98=0|108=30|10=145|8=FIX.4.4|9=77|35=2|34=3|49=EXEC_SERVER|52=20260227-12:25:41.274|56=MINIFIX_CLIENT|7=2|16=0|10=232|8=FIX.4.4|9=68|35=0|34=4|49=EXEC_SERVER|52=20260227-12:26:11.914|56=MINIFIX_CLIENT|10=106|8=FIX.4.4|9=80|35=A|34=5|49=EXEC_SERVER|52=20260227-12:27:10.465|56=MINIFIX_CLIENT|98=0|108=30|10=144|8=FIX.4.4|9=77|35=2|34=6|49=EXEC_SERVER|52=20260227-12:27:10.466|56=MINIFIX_CLIENT|7=2|16=0|10=236|8=FIX.4.4|9=68|35=0|34=7|49=EXEC_SERVER|52=20260227-12:27:40.915|56=MINIFIX_CLIENT|10=113|8=FIX.4.4|9=68|35=0|34=8|49=EXEC_SERVER|52=20260227-12:28:10.915|56=MINIFIX_CLIENT|10=112|8=FIX.4.4|9=68|35=0|34=9|49=EXEC_SERVER|52=20260227-12:28:40.911|56=MINIFIX_CLIENT|10=112|8=FIX.4.4|9=69|35=0|34=10|49=EXEC_SERVER|52=20260227-12:29:10.910|56=MINIFIX_CLIENT|10=150|