8=FIX.4.4|9=80|35=A|34=1|49=EXEC_SERVER|52=20260416-10:57:29.923|56=MINIFIX_CLIENT|98=0|108=30|10=150|8=FIX.4.4|9=163|35=8|34=2|49=EXEC_SERVER|52=20260416-10:57:50.662|56=MINIFIX_CLIENT|6=0|11=65942209|14=0|17=17763370706610001|37=17761535731527240|39=4|54=2|55=GOOG|150=4|151=100|10=125|8=FIX.4.4|9=68|35=0|34=3|49=EXEC_SERVER|52=20260416-10:58:20.877|56=MINIFIX_CLIENT|10=116|8=FIX.4.4|9=68|35=0|34=4|49=EXEC_SERVER|52=20260416-10:58:51.865|56=MINIFIX_CLIENT|10=118|8=FIX.4.4|9=68|35=0|34=5|49=EXEC_SERVER|52=20260416-10:59:21.863|56=MINIFIX_CLIENT|10=115|8=FIX.4.4|9=68|35=0|34=6|49=EXEC_SERVER|52=20260416-10:59:51.864|56=MINIFIX_CLIENT|10=120|8=FIX.4.4|9=68|35=0|34=7|49=EXEC_SERVER|52=20260416-11:00:21.860|56=MINIFIX_CLIENT|10=101|8=FIX.4.4|9=68|35=0|34=8|49=EXEC_SERVER|52=20260416-11:00:51.859|56=MINIFIX_CLIENT|10=113|8=FIX.4.4|9=68|35=0|34=9|49=EXEC_SERVER|52=20260416-11:01:21.886|56=MINIFIX_CLIENT|10=112|8=FIX.4.4|9=69|35=0|34=10|49=EXEC_SERVER|52=20260416-11:01:51.884|56=MINIFIX_CLIENT|10=154|8=FIX.4.4|9=69|35=0|34=11|49=EXEC_SERVER|52=20260416-11:02:21.884|56=MINIFIX_CLIENT|10=153|8=FIX.4.4|9=69|35=0|34=12|49=EXEC_SERVER|52=20260416-11:02:51.885|56=MINIFIX_CLIENT|10=158|8=FIX.4.4|9=69|35=0|34=13|49=EXEC_SERVER|52=20260416-11:03:21.883|56=MINIFIX_CLIENT|10=155|8=FIX.4.4|9=69|35=0|34=14|49=EXEC_SERVER|52=20260416-11:03:51.879|56=MINIFIX_CLIENT|10=164|8=FIX.4.4|9=69|35=0|34=15|49=EXEC_SERVER|52=20260416-11:04:21.881|56=MINIFIX_CLIENT|10=156|8=FIX.4.4|9=69|35=0|34=16|49=EXEC_SERVER|52=20260416-11:04:51.880|56=MINIFIX_CLIENT|10=159|