8=FIX.4.4|9=80|35=A|34=1|49=EXEC_SERVER|52=20260227-13:20:10.753|56=MINIFIX_CLIENT|98=0|108=30|10=134|8=FIX.4.4|9=166|35=8|34=2|49=EXEC_SERVER|52=20260227-13:20:14.643|56=MINIFIX_CLIENT|6=0|11=2067598415|14=0|17=EXEC_1772198414642|37=GEN_1772198414639|39=0|54=1|55=GOOG|150=0|151=100|10=019|8=FIX.4.4|9=68|35=0|34=3|49=EXEC_SERVER|52=20260227-13:20:45.236|56=MINIFIX_CLIENT|10=104|8=FIX.4.4|9=68|35=0|34=4|49=EXEC_SERVER|52=20260227-13:21:15.234|56=MINIFIX_CLIENT|10=101|8=FIX.4.4|9=68|35=0|34=5|49=EXEC_SERVER|52=20260227-13:21:45.237|56=MINIFIX_CLIENT|10=108|8=FIX.4.4|9=68|35=0|34=6|49=EXEC_SERVER|52=20260227-13:22:15.237|56=MINIFIX_CLIENT|10=107|8=FIX.4.4|9=68|35=0|34=7|49=EXEC_SERVER|52=20260227-13:22:45.235|56=MINIFIX_CLIENT|10=109|8=FIX.4.4|9=68|35=0|34=8|49=EXEC_SERVER|52=20260227-13:23:15.235|56=MINIFIX_CLIENT|10=108|8=FIX.4.4|9=68|35=0|34=9|49=EXEC_SERVER|52=20260227-13:23:45.235|56=MINIFIX_CLIENT|10=112|8=FIX.4.4|9=69|35=0|34=10|49=EXEC_SERVER|52=20260227-13:24:15.236|56=MINIFIX_CLIENT|10=152|8=FIX.4.4|9=69|35=0|34=11|49=EXEC_SERVER|52=20260227-13:24:45.232|56=MINIFIX_CLIENT|10=152|