8=FIX.4.4|9=80|35=A|34=1|49=EXEC_SERVER|52=20260302-12:15:01.786|56=MINIFIX_CLIENT|98=0|108=30|10=137|8=FIX.4.4|9=166|35=8|34=2|49=EXEC_SERVER|52=20260302-12:15:24.535|56=MINIFIX_CLIENT|6=0|11=2067598578|14=0|17=EXEC_1772453724534|37=GEN_1772453724533|39=0|54=2|55=GOOG|150=0|151=100|10=017|8=FIX.4.4|9=166|35=8|34=3|49=EXEC_SERVER|52=20260302-12:15:35.709|56=MINIFIX_CLIENT|6=0|11=2067598579|14=0|17=EXEC_1772453735709|37=GEN_1772453735709|39=0|54=2|55=GOOG|150=0|151=100|10=037|8=FIX.4.4|9=166|35=8|34=4|49=EXEC_SERVER|52=20260302-12:15:56.220|56=MINIFIX_CLIENT|6=0|11=2067598580|14=0|17=EXEC_1772453756220|37=GEN_1772453756220|39=0|54=1|55=GOOG|150=0|151=150|10=007|8=FIX.4.4|9=249|35=8|34=5|49=EXEC_SERVER|52=20260302-12:15:56.251|56=MINIFIX_CLIENT|6=50|11=TRADE_7da3280d-478f-432d-9db0-e39060a8d9ab|14=100|17=7da3280d-478f-432d-9db0-e39060a8d9ab|31=50|32=100|37=af45c4a7-a36b-48cf-9c42-24e411d1f3ce|39=2|54=1|55=GOOG|150=F|151=0|10=004|8=FIX.4.4|9=247|35=8|34=6|49=EXEC_SERVER|52=20260302-12:15:56.254|56=MINIFIX_CLIENT|6=51|11=TRADE_f71286ea-6bb3-40af-85e5-c5d87818a6a5|14=50|17=f71286ea-6bb3-40af-85e5-c5d87818a6a5|31=51|32=50|37=af45c4a7-a36b-48cf-9c42-24e411d1f3ce|39=2|54=1|55=GOOG|150=F|151=0|10=196|8=FIX.4.4|9=68|35=0|34=7|49=EXEC_SERVER|52=20260302-12:16:26.570|56=MINIFIX_CLIENT|10=106|8=FIX.4.4|9=68|35=0|34=8|49=EXEC_SERVER|52=20260302-12:16:56.571|56=MINIFIX_CLIENT|10=111|