8=FIX.4.4|9=80|35=A|34=1|49=EXEC_SERVER|52=20260301-10:14:54.793|56=MINIFIX_CLIENT|98=0|108=30|10=139|8=FIX.4.4|9=166|35=8|34=2|49=EXEC_SERVER|52=20260301-10:15:01.830|56=MINIFIX_CLIENT|6=0|11=2067598544|14=0|17=EXEC_1772360101829|37=GEN_1772360101828|39=0|54=2|55=GOOG|150=0|151=100|10=242|8=FIX.4.4|9=192|35=8|34=3|49=EXEC_SERVER|52=20260301-10:15:27.586|56=MINIFIX_CLIENT|6=0|11=2067598545|14=0|17=EXEC_1772360127586|37=REJ_1772360127585|39=8|54=2|55=GOOGG|58=Unknown Security Symbol|150=8|151=0|10=185|