8=FIX.4.4|9=80|35=A|34=1|49=EXEC_SERVER|52=20260416-12:47:20.199|56=MINIFIX_CLIENT|98=0|108=30|10=147|8=FIX.4.4|9=164|35=8|34=2|49=EXEC_SERVER|52=20260416-12:47:24.041|56=MINIFIX_CLIENT|6=0|11=822596437|14=0|17=EXEC_1776343644040|37=GEN_1776343644038|39=0|54=2|55=GOOG|150=0|151=25|10=171|8=FIX.4.4|9=164|35=8|34=3|49=EXEC_SERVER|52=20260416-12:47:24.841|56=MINIFIX_CLIENT|6=0|11=822596438|14=0|17=EXEC_1776343644841|37=GEN_1776343644841|39=0|54=2|55=GOOG|150=0|151=25|10=192|8=FIX.4.4|9=164|35=8|34=4|49=EXEC_SERVER|52=20260416-12:47:25.283|56=MINIFIX_CLIENT|6=0|11=822596439|14=0|17=EXEC_1776343645283|37=GEN_1776343645283|39=0|54=2|55=GOOG|150=0|151=25|10=197|8=FIX.4.4|9=164|35=8|34=5|49=EXEC_SERVER|52=20260416-12:47:44.454|56=MINIFIX_CLIENT|6=0|11=822596440|14=0|17=EXEC_1776343664454|37=GEN_1776343664454|39=0|54=1|55=GOOG|150=0|151=25|10=192|8=FIX.4.4|9=190|35=8|34=6|49=EXEC_SERVER|52=20260416-12:47:44.469|56=MINIFIX_CLIENT|6=50|11=TRADE_17763436644570004|14=25|17=17763436644570004|31=50|32=25|37=17763436644530003|39=2|54=1|55=GOOG|150=F|151=0|10=090|8=FIX.4.4|9=68|35=0|34=7|49=EXEC_SERVER|52=20260416-12:48:15.007|56=MINIFIX_CLIENT|10=110|8=FIX.4.4|9=77|35=1|34=8|49=EXEC_SERVER|52=20260416-12:48:30.024|56=MINIFIX_CLIENT|112=TEST|10=126|8=FIX.4.4|9=164|35=8|34=9|49=EXEC_SERVER|52=20260416-12:48:44.504|56=MINIFIX_CLIENT|6=0|11=822596441|14=0|17=EXEC_1776343724503|37=GEN_1776343724503|39=0|54=1|55=GOOG|150=0|151=25|10=178|8=FIX.4.4|9=191|35=8|34=10|49=EXEC_SERVER|52=20260416-12:48:44.505|56=MINIFIX_CLIENT|6=50|11=TRADE_17763437245050006|14=25|17=17763437245050006|31=50|32=25|37=17763437245030005|39=2|54=1|55=GOOG|150=F|151=0|10=107|8=FIX.4.4|9=69|35=0|34=11|49=EXEC_SERVER|52=20260416-12:49:15.008|56=MINIFIX_CLIENT|10=156|8=FIX.4.4|9=78|35=1|34=12|49=EXEC_SERVER|52=20260416-12:49:30.007|56=MINIFIX_CLIENT|112=TEST|10=172|8=FIX.4.4|9=69|35=5|34=13|49=EXEC_SERVER|52=20260416-12:49:54.009|56=MINIFIX_CLIENT|10=167|8=FIX.4.4|9=81|35=A|34=14|49=EXEC_SERVER|52=20260416-13:03:22.274|56=MINIFIX_CLIENT|98=0|108=30|10=189|8=FIX.4.4|9=165|35=8|34=15|49=EXEC_SERVER|52=20260416-13:03:24.858|56=MINIFIX_CLIENT|6=0|11=822596442|14=0|17=EXEC_1776344604857|37=GEN_1776344604856|39=0|54=1|55=GOOG|150=0|151=25|10=246|8=FIX.4.4|9=165|35=8|34=16|49=EXEC_SERVER|52=20260416-13:03:25.484|56=MINIFIX_CLIENT|6=0|11=822596443|14=0|17=EXEC_1776344605484|37=GEN_1776344605484|39=0|54=1|55=GOOG|150=0|151=25|10=239|8=FIX.4.4|9=165|35=8|34=17|49=EXEC_SERVER|52=20260416-13:03:26.024|56=MINIFIX_CLIENT|6=0|11=822596444|14=0|17=EXEC_1776344606024|37=GEN_1776344606024|39=0|54=1|55=GOOG|150=0|151=25|10=214|8=FIX.4.4|9=165|35=8|34=18|49=EXEC_SERVER|52=20260416-13:03:44.150|56=MINIFIX_CLIENT|6=0|11=822596445|14=0|17=EXEC_1776344624149|37=GEN_1776344624149|39=0|54=2|55=GOOG|150=0|151=25|10=233|8=FIX.4.4|9=191|35=8|34=19|49=EXEC_SERVER|52=20260416-13:03:44.177|56=MINIFIX_CLIENT|6=50|11=TRADE_17763446241530004|14=25|17=17763446241530004|31=50|32=25|37=17763446241430003|39=2|54=2|55=GOOG|150=F|151=0|10=106|8=FIX.4.4|9=165|35=8|34=20|49=EXEC_SERVER|52=20260416-13:03:44.759|56=MINIFIX_CLIENT|6=0|11=822596446|14=0|17=EXEC_1776344624759|37=GEN_1776344624759|39=0|54=2|55=GOOG|150=0|151=25|10=000|8=FIX.4.4|9=191|35=8|34=21|49=EXEC_SERVER|52=20260416-13:03:44.760|56=MINIFIX_CLIENT|6=50|11=TRADE_17763446247600006|14=25|17=17763446247600006|31=50|32=25|37=17763446247580005|39=2|54=2|55=GOOG|150=F|151=0|10=123|8=FIX.4.4|9=165|35=8|34=22|49=EXEC_SERVER|52=20260416-13:03:46.403|56=MINIFIX_CLIENT|6=0|11=822596447|14=0|17=EXEC_1776344626403|37=GEN_1776344626403|39=0|54=2|55=GOOG|150=0|151=25|10=223|8=FIX.4.4|9=191|35=8|34=23|49=EXEC_SERVER|52=20260416-13:03:46.405|56=MINIFIX_CLIENT|6=50|11=TRADE_17763446264040008|14=25|17=17763446264040008|31=50|32=25|37=17763446264030007|39=2|54=2|55=GOOG|150=F|151=0|10=112|8=FIX.4.4|9=165|35=8|34=24|49=EXEC_SERVER|52=20260416-13:03:49.035|56=MINIFIX_CLIENT|6=0|11=822596448|14=0|17=EXEC_1776344629034|37=GEN_1776344629034|39=0|54=2|55=GOOG|150=0|151=25|10=236|8=FIX.4.4|9=164|35=8|34=25|49=EXEC_SERVER|52=20260416-13:04:11.938|56=MINIFIX_CLIENT|6=0|11=822596448|14=0|17=17763446519375003|37=17763446290320009|39=4|54=2|55=GOOG|150=4|151=25|10=207|8=FIX.4.4|9=69|35=0|34=26|49=EXEC_SERVER|52=20260416-13:04:42.188|56=MINIFIX_CLIENT|10=163|8=FIX.4.4|9=69|35=0|34=27|49=EXEC_SERVER|52=20260416-13:05:13.180|56=MINIFIX_CLIENT|10=155|8=FIX.4.4|9=69|35=0|34=28|49=EXEC_SERVER|52=20260416-13:05:43.191|56=MINIFIX_CLIENT|10=161|8=FIX.4.4|9=69|35=0|34=29|49=EXEC_SERVER|52=20260416-13:06:14.177|56=MINIFIX_CLIENT|10=165|8=FIX.4.4|9=69|35=0|34=30|49=EXEC_SERVER|52=20260416-13:06:44.177|56=MINIFIX_CLIENT|10=160|8=FIX.4.4|9=69|35=0|34=31|49=EXEC_SERVER|52=20260416-13:07:14.177|56=MINIFIX_CLIENT|10=159|8=FIX.4.4|9=69|35=0|34=32|49=EXEC_SERVER|52=20260416-13:07:44.175|56=MINIFIX_CLIENT|10=161|8=FIX.4.4|9=69|35=0|34=33|49=EXEC_SERVER|52=20260416-13:08:14.174|56=MINIFIX_CLIENT|10=159|8=FIX.4.4|9=69|35=0|34=34|49=EXEC_SERVER|52=20260416-13:08:44.174|56=MINIFIX_CLIENT|10=163|8=FIX.4.4|9=69|35=0|34=35|49=EXEC_SERVER|52=20260416-13:09:14.175|56=MINIFIX_CLIENT|10=163|8=FIX.4.4|9=69|35=0|34=36|49=EXEC_SERVER|52=20260416-13:09:44.175|56=MINIFIX_CLIENT|10=167|8=FIX.4.4|9=69|35=0|34=37|49=EXEC_SERVER|52=20260416-13:10:14.173|56=MINIFIX_CLIENT|10=155|8=FIX.4.4|9=69|35=0|34=38|49=EXEC_SERVER|52=20260416-13:10:44.167|56=MINIFIX_CLIENT|10=162|8=FIX.4.4|9=69|35=5|34=39|49=EXEC_SERVER|52=20260416-13:11:10.174|56=MINIFIX_CLIENT|10=160|8=FIX.4.4|9=81|35=A|34=40|49=EXEC_SERVER|52=20260416-13:20:10.313|56=MINIFIX_CLIENT|98=0|108=30|10=178|8=FIX.4.4|9=165|35=8|34=41|49=EXEC_SERVER|52=20260416-13:20:13.159|56=MINIFIX_CLIENT|6=0|11=822596449|14=0|17=EXEC_1776345613158|37=GEN_1776345613156|39=0|54=2|55=GOOG|150=0|151=25|10=233|8=FIX.4.4|9=165|35=8|34=42|49=EXEC_SERVER|52=20260416-13:20:13.584|56=MINIFIX_CLIENT|6=0|11=822596450|14=0|17=EXEC_1776345613584|37=GEN_1776345613584|39=0|54=2|55=GOOG|150=0|151=25|10=236|8=FIX.4.4|9=165|35=8|34=43|49=EXEC_SERVER|52=20260416-13:20:14.167|56=MINIFIX_CLIENT|6=0|11=822596451|14=0|17=EXEC_1776345614167|37=GEN_1776345614167|39=0|54=2|55=GOOG|150=0|151=25|10=232|8=FIX.4.4|9=165|35=8|34=44|49=EXEC_SERVER|52=20260416-13:20:14.596|56=MINIFIX_CLIENT|6=0|11=822596452|14=0|17=EXEC_1776345614596|37=GEN_1776345614596|39=0|54=2|55=GOOG|150=0|151=25|10=252|8=FIX.4.4|9=165|35=8|34=45|49=EXEC_SERVER|52=20260416-13:20:37.098|56=MINIFIX_CLIENT|6=0|11=822596453|14=0|17=EXEC_1776345637098|37=GEN_1776345637098|39=0|54=1|55=GOOG|150=0|151=25|10=003|8=FIX.4.4|9=191|35=8|34=46|49=EXEC_SERVER|52=20260416-13:20:37.110|56=MINIFIX_CLIENT|6=50|11=TRADE_17763456371010005|14=25|17=17763456371010005|31=50|32=25|37=17763456370960004|39=2|54=1|55=GOOG|150=F|151=0|10=104|8=FIX.4.4|9=69|35=0|34=47|49=EXEC_SERVER|52=20260416-13:21:07.584|56=MINIFIX_CLIENT|10=166|8=FIX.4.4|9=69|35=0|34=48|49=EXEC_SERVER|52=20260416-13:21:37.595|56=MINIFIX_CLIENT|10=172|8=FIX.4.4|9=69|35=0|34=49|49=EXEC_SERVER|52=20260416-13:22:08.585|56=MINIFIX_CLIENT|10=171|8=FIX.4.4|9=69|35=0|34=50|49=EXEC_SERVER|52=20260416-13:22:38.581|56=MINIFIX_CLIENT|10=162|8=FIX.4.4|9=69|35=0|34=51|49=EXEC_SERVER|52=20260416-13:23:08.583|56=MINIFIX_CLIENT|10=163|8=FIX.4.4|9=136|35=9|34=52|49=EXEC_SERVER|52=20260416-13:23:10.634|56=MINIFIX_CLIENT|11=822596454|37=822596449|39=8|41=822596449|58=Unknown order|434=1|10=027|8=FIX.4.4|9=69|35=0|34=53|49=EXEC_SERVER|52=20260416-13:23:41.579|56=MINIFIX_CLIENT|10=167|8=FIX.4.4|9=69|35=0|34=54|49=EXEC_SERVER|52=20260416-13:24:11.577|56=MINIFIX_CLIENT|10=164|8=FIX.4.4|9=69|35=0|34=55|49=EXEC_SERVER|52=20260416-13:24:41.579|56=MINIFIX_CLIENT|10=170|8=FIX.4.4|9=69|35=0|34=56|49=EXEC_SERVER|52=20260416-13:25:11.577|56=MINIFIX_CLIENT|10=167|8=FIX.4.4|9=69|35=0|34=57|49=EXEC_SERVER|52=20260416-13:25:41.578|56=MINIFIX_CLIENT|10=172|8=FIX.4.4|9=69|35=0|34=58|49=EXEC_SERVER|52=20260416-13:26:11.572|56=MINIFIX_CLIENT|10=165|8=FIX.4.4|9=69|35=0|34=59|49=EXEC_SERVER|52=20260416-13:26:41.579|56=MINIFIX_CLIENT|10=176|8=FIX.4.4|9=69|35=0|34=60|49=EXEC_SERVER|52=20260416-13:27:11.575|56=MINIFIX_CLIENT|10=162|8=FIX.4.4|9=136|35=9|34=61|49=EXEC_SERVER|52=20260416-13:27:36.299|56=MINIFIX_CLIENT|11=822596457|37=822596449|39=8|41=822596449|58=Unknown order|434=2|10=050|8=FIX.4.4|9=69|35=0|34=62|49=EXEC_SERVER|52=20260416-13:28:06.570|56=MINIFIX_CLIENT|10=164|8=FIX.4.4|9=136|35=9|34=63|49=EXEC_SERVER|52=20260416-13:28:24.163|56=MINIFIX_CLIENT|11=822596458|37=822596450|39=8|41=822596450|58=Unknown order|434=2|10=025|8=FIX.4.4|9=69|35=0|34=64|49=EXEC_SERVER|52=20260416-13:28:54.571|56=MINIFIX_CLIENT|10=170|8=FIX.4.4|9=164|35=8|34=65|49=EXEC_SERVER|52=20260416-13:29:13.504|56=MINIFIX_CLIENT|6=0|11=822596450|14=0|17=17763461534985001|37=17763456135840001|39=4|54=2|55=GOOG|150=4|151=25|10=199|8=FIX.4.4|9=136|35=9|34=66|49=EXEC_SERVER|52=20260416-13:29:34.306|56=MINIFIX_CLIENT|11=822596459|37=822596451|39=8|41=822596451|58=Unknown order|434=2|10=032|8=FIX.4.4|9=69|35=0|34=67|49=EXEC_SERVER|52=20260416-13:30:04.565|56=MINIFIX_CLIENT|10=164|8=FIX.4.4|9=69|35=0|34=68|49=EXEC_SERVER|52=20260416-13:30:35.551|56=MINIFIX_CLIENT|10=164|8=FIX.4.4|9=136|35=9|34=69|49=EXEC_SERVER|52=20260416-13:30:51.627|56=MINIFIX_CLIENT|11=822596460|37=822596451|39=8|41=822596451|58=Unknown order|434=2|10=024|8=FIX.4.4|9=69|35=0|34=70|49=EXEC_SERVER|52=20260416-13:31:22.542|56=MINIFIX_CLIENT|10=154|8=FIX.4.4|9=136|35=9|34=71|49=EXEC_SERVER|52=20260416-13:31:49.152|56=MINIFIX_CLIENT|11=822596461|37=822596452|39=8|41=822596452|58=Unknown order|434=1|10=020|8=FIX.4.4|9=69|35=0|34=72|49=EXEC_SERVER|52=20260416-13:32:19.544|56=MINIFIX_CLIENT|10=165|8=FIX.4.4|9=136|35=9|34=73|49=EXEC_SERVER|52=20260416-13:32:20.699|56=MINIFIX_CLIENT|11=822596462|37=822596452|39=8|41=822596452|58=Unknown order|434=1|10=029|8=FIX.4.4|9=69|35=5|34=74|49=EXEC_SERVER|52=20260416-13:32:31.540|56=MINIFIX_CLIENT|10=162|8=FIX.4.4|9=81|35=A|34=75|49=EXEC_SERVER|52=20260416-13:38:08.886|56=MINIFIX_CLIENT|98=0|108=30|10=217|8=FIX.4.4|9=164|35=8|34=76|49=EXEC_SERVER|52=20260416-13:38:20.790|56=MINIFIX_CLIENT|6=0|11=822596451|14=0|17=17763467007895000|37=17763456141660002|39=4|54=2|55=GOOG|150=4|151=25|10=205|8=FIX.4.4|9=69|35=0|34=77|49=EXEC_SERVER|52=20260416-13:38:51.648|56=MINIFIX_CLIENT|10=177|8=FIX.4.4|9=69|35=0|34=78|49=EXEC_SERVER|52=20260416-13:39:21.646|56=MINIFIX_CLIENT|10=174|8=FIX.4.4|9=69|35=0|34=79|49=EXEC_SERVER|52=20260416-13:39:51.641|56=MINIFIX_CLIENT|10=173|8=FIX.4.4|9=164|35=8|34=80|49=EXEC_SERVER|52=20260416-13:39:52.875|56=MINIFIX_CLIENT|6=0|11=822596452|14=0|17=17763467928745002|37=17763456145950003|39=4|54=2|55=GOOG|150=4|151=25|10=226|8=FIX.4.4|9=165|35=8|34=81|49=EXEC_SERVER|52=20260416-13:39:52.918|56=MINIFIX_CLIENT|6=0|11=822596464|14=0|17=EXEC_1776346792918|37=GEN_1776346792918|39=0|54=1|55=GOOG|150=0|151=50|10=019|8=FIX.4.4|9=69|35=0|34=82|49=EXEC_SERVER|52=20260416-13:40:23.643|56=MINIFIX_CLIENT|10=160|8=FIX.4.4|9=69|35=0|34=83|49=EXEC_SERVER|52=20260416-13:40:53.641|56=MINIFIX_CLIENT|10=162|8=FIX.4.4|9=69|35=0|34=84|49=EXEC_SERVER|52=20260416-13:41:23.639|56=MINIFIX_CLIENT|10=168|8=FIX.4.4|9=69|35=5|34=85|49=EXEC_SERVER|52=20260416-13:41:29.642|56=MINIFIX_CLIENT|10=174|8=FIX.4.4|9=81|35=A|34=86|49=EXEC_SERVER|52=20260416-13:45:35.605|56=MINIFIX_CLIENT|98=0|108=30|10=206|8=FIX.4.4|9=69|35=0|34=87|49=EXEC_SERVER|52=20260416-13:46:06.530|56=MINIFIX_CLIENT|10=167|8=FIX.4.4|9=164|35=8|34=88|49=EXEC_SERVER|52=20260416-13:46:20.865|56=MINIFIX_CLIENT|6=0|11=822596464|14=0|17=17763471808645000|37=17763467929160000|39=4|54=1|55=GOOG|150=4|151=50|10=217|8=FIX.4.4|9=165|35=8|34=89|49=EXEC_SERVER|52=20260416-13:46:20.889|56=MINIFIX_CLIENT|6=0|11=822596465|14=0|17=EXEC_1776347180884|37=GEN_1776347180881|39=0|54=1|55=GOOG|150=0|151=50|10=013|8=FIX.4.4|9=164|35=8|34=90|49=EXEC_SERVER|52=20260416-13:46:26.789|56=MINIFIX_CLIENT|6=0|11=822596465|14=0|17=17763471867895004|37=17763471808800000|39=4|54=1|55=GOOG|150=4|151=50|10=230|8=FIX.4.4|9=69|35=5|34=91|49=EXEC_SERVER|52=20260416-13:46:43.523|56=MINIFIX_CLIENT|10=170|